{
	"SingAuction.sol": {
		"Auction": {
			"abi": [
				{
					"inputs": [
						{
							"internalType": "uint256",
							"name": "_duration",
							"type": "uint256"
						},
						{
							"internalType": "uint256",
							"name": "_initialValue",
							"type": "uint256"
						}
					],
					"stateMutability": "nonpayable",
					"type": "constructor"
				},
				{
					"anonymous": false,
					"inputs": [
						{
							"indexed": false,
							"internalType": "address",
							"name": "winner",
							"type": "address"
						},
						{
							"indexed": false,
							"internalType": "uint256",
							"name": "amount",
							"type": "uint256"
						}
					],
					"name": "AuctionEnded",
					"type": "event"
				},
				{
					"anonymous": false,
					"inputs": [
						{
							"indexed": false,
							"internalType": "uint256",
							"name": "endDate",
							"type": "uint256"
						}
					],
					"name": "AuctionStarted",
					"type": "event"
				},
				{
					"anonymous": false,
					"inputs": [
						{
							"indexed": false,
							"internalType": "uint256",
							"name": "amount",
							"type": "uint256"
						}
					],
					"name": "EmergencyWithdraw",
					"type": "event"
				},
				{
					"anonymous": false,
					"inputs": [
						{
							"indexed": true,
							"internalType": "address",
							"name": "bidder",
							"type": "address"
						},
						{
							"indexed": false,
							"internalType": "uint256",
							"name": "amount",
							"type": "uint256"
						}
					],
					"name": "NewBid",
					"type": "event"
				},
				{
					"anonymous": false,
					"inputs": [
						{
							"indexed": true,
							"internalType": "address",
							"name": "participant",
							"type": "address"
						},
						{
							"indexed": false,
							"internalType": "uint256",
							"name": "amount",
							"type": "uint256"
						}
					],
					"name": "Withdraw",
					"type": "event"
				},
				{
					"inputs": [],
					"name": "bid",
					"outputs": [],
					"stateMutability": "payable",
					"type": "function"
				},
				{
					"inputs": [
						{
							"internalType": "uint256",
							"name": "",
							"type": "uint256"
						}
					],
					"name": "bids",
					"outputs": [
						{
							"internalType": "address",
							"name": "bidder",
							"type": "address"
						},
						{
							"internalType": "uint256",
							"name": "amount",
							"type": "uint256"
						}
					],
					"stateMutability": "view",
					"type": "function"
				},
				{
					"inputs": [],
					"name": "emergencyWithdraw",
					"outputs": [],
					"stateMutability": "nonpayable",
					"type": "function"
				},
				{
					"inputs": [],
					"name": "endDate",
					"outputs": [
						{
							"internalType": "uint256",
							"name": "",
							"type": "uint256"
						}
					],
					"stateMutability": "view",
					"type": "function"
				},
				{
					"inputs": [],
					"name": "finalized",
					"outputs": [
						{
							"internalType": "bool",
							"name": "",
							"type": "bool"
						}
					],
					"stateMutability": "view",
					"type": "function"
				},
				{
					"inputs": [],
					"name": "initialValue",
					"outputs": [
						{
							"internalType": "uint256",
							"name": "",
							"type": "uint256"
						}
					],
					"stateMutability": "view",
					"type": "function"
				},
				{
					"inputs": [
						{
							"internalType": "address",
							"name": "",
							"type": "address"
						}
					],
					"name": "myBids",
					"outputs": [
						{
							"internalType": "uint256",
							"name": "last",
							"type": "uint256"
						},
						{
							"internalType": "uint256",
							"name": "accumulated",
							"type": "uint256"
						}
					],
					"stateMutability": "view",
					"type": "function"
				},
				{
					"inputs": [],
					"name": "owner",
					"outputs": [
						{
							"internalType": "address",
							"name": "",
							"type": "address"
						}
					],
					"stateMutability": "view",
					"type": "function"
				},
				{
					"inputs": [],
					"name": "partialRefund",
					"outputs": [],
					"stateMutability": "nonpayable",
					"type": "function"
				},
				{
					"inputs": [],
					"name": "showBids",
					"outputs": [
						{
							"components": [
								{
									"internalType": "address",
									"name": "bidder",
									"type": "address"
								},
								{
									"internalType": "uint256",
									"name": "amount",
									"type": "uint256"
								}
							],
							"internalType": "struct Auction.Bid[]",
							"name": "",
							"type": "tuple[]"
						}
					],
					"stateMutability": "view",
					"type": "function"
				},
				{
					"inputs": [],
					"name": "showWinner",
					"outputs": [
						{
							"internalType": "address",
							"name": "",
							"type": "address"
						}
					],
					"stateMutability": "view",
					"type": "function"
				},
				{
					"inputs": [],
					"name": "withdrawDeposits",
					"outputs": [],
					"stateMutability": "nonpayable",
					"type": "function"
				}
			],
			"devdoc": {
				"author": "@notice This contract allows running an auction with minimum incremental bids, refunds, and 2% commission to the owner.",
				"details": "Uses structs for bid tracking, automatic time extensions, and secure fund handling.",
				"kind": "dev",
				"methods": {
					"constructor": {
						"details": "Initializes the auction with configurable duration and starting value",
						"params": {
							"_duration": "Duration in seconds",
							"_initialValue": "Minimum starting value (in wei)"
						}
					},
					"showBids()": {
						"returns": {
							"_0": "Array of bids with address and amount"
						}
					},
					"showWinner()": {
						"returns": {
							"_0": "Address of the highest bidder"
						}
					}
				},
				"title": "Transparent Auction with Commission and Partial Refunds",
				"version": 1
			},
			"evm": {
				"assembly": "    /* \"SingAuction.sol\":361:5488  contract Auction {... */\n  mstore(0x40, 0x80)\n    /* \"SingAuction.sol\":1490:1784  constructor(uint256 _duration, uint256 _initialValue) {... */\n  callvalue\n  dup1\n  iszero\n  tag_1\n  jumpi\n  revert(0x00, 0x00)\ntag_1:\n  pop\n  mload(0x40)\n  sub(codesize, bytecodeSize)\n  dup1\n  bytecodeSize\n  dup4\n  codecopy\n  dup2\n  add\n  0x40\n  dup2\n  swap1\n  mstore\n  tag_2\n  swap2\n  tag_3\n  jump\t// in\ntag_2:\n    /* \"SingAuction.sol\":1579:1580  0 */\n  0x00\n    /* \"SingAuction.sol\":1563:1576  _initialValue */\n  dup2\n    /* \"SingAuction.sol\":1563:1580  _initialValue > 0 */\n  gt\n    /* \"SingAuction.sol\":1555:1621  require(_initialValue > 0, \"Initial value must be greater than 0\") */\n  tag_6\n  jumpi\n  mload(0x40)\n  shl(0xe5, 0x461bcd)\n  dup2\n  mstore\n    /* \"#utility.yul\":564:566   */\n  0x20\n    /* \"SingAuction.sol\":1555:1621  require(_initialValue > 0, \"Initial value must be greater than 0\") */\n  0x04\n  dup3\n  add\n    /* \"#utility.yul\":546:567   */\n  mstore\n    /* \"#utility.yul\":603:605   */\n  0x24\n    /* \"#utility.yul\":583:601   */\n  dup1\n  dup3\n  add\n    /* \"#utility.yul\":576:606   */\n  mstore\n    /* \"#utility.yul\":642:676   */\n  0x496e697469616c2076616c7565206d7573742062652067726561746572207468\n    /* \"#utility.yul\":622:640   */\n  0x44\n  dup3\n  add\n    /* \"#utility.yul\":615:677   */\n  mstore\n  shl(0xe4, 0x0616e203)\n    /* \"#utility.yul\":693:711   */\n  0x64\n  dup3\n  add\n    /* \"#utility.yul\":686:720   */\n  mstore\n    /* \"#utility.yul\":737:756   */\n  0x84\n  add\n    /* \"SingAuction.sol\":1555:1621  require(_initialValue > 0, \"Initial value must be greater than 0\") */\n  mload(0x40)\n  dup1\n  swap2\n  sub\n  swap1\n  revert\ntag_6:\n    /* \"SingAuction.sol\":1642:1669  block.timestamp + _duration */\n  tag_9\n    /* \"SingAuction.sol\":1660:1669  _duration */\n  dup3\n    /* \"SingAuction.sol\":1642:1657  block.timestamp */\n  timestamp\n    /* \"SingAuction.sol\":1642:1669  block.timestamp + _duration */\n  tag_10\n  jump\t// in\ntag_9:\n    /* \"SingAuction.sol\":1632:1639  endDate */\n  0x02\n    /* \"SingAuction.sol\":1632:1669  endDate = block.timestamp + _duration */\n  dup2\n  swap1\n  sstore\n    /* \"SingAuction.sol\":1680:1692  initialValue */\n  0x03\n    /* \"SingAuction.sol\":1680:1708  initialValue = _initialValue */\n  dup3\n  swap1\n  sstore\n    /* \"SingAuction.sol\":1719:1724  owner */\n  0x04\n    /* \"SingAuction.sol\":1719:1737  owner = msg.sender */\n  dup1\n  sload\n  not(sub(shl(0xa0, 0x01), 0x01))\n  and\n    /* \"SingAuction.sol\":1727:1737  msg.sender */\n  caller\n    /* \"SingAuction.sol\":1719:1737  owner = msg.sender */\n  or\n  swap1\n  sstore\n    /* \"SingAuction.sol\":1753:1776  AuctionStarted(endDate) */\n  mload(0x40)\n  0x1bb96dff6ab5005aff98cdc0cf176bb7d8e0423cb48e02217d35b042cec81e9f\n  swap2\n  tag_11\n  swap2\n    /* \"#utility.yul\":1140:1165   */\n  swap1\n  dup2\n  mstore\n    /* \"#utility.yul\":1128:1130   */\n  0x20\n    /* \"#utility.yul\":1113:1131   */\n  add\n  swap1\n    /* \"#utility.yul\":994:1171   */\n  jump\n    /* \"SingAuction.sol\":1753:1776  AuctionStarted(endDate) */\ntag_11:\n  mload(0x40)\n  dup1\n  swap2\n  sub\n  swap1\n  log1\n    /* \"SingAuction.sol\":1490:1784  constructor(uint256 _duration, uint256 _initialValue) {... */\n  pop\n  pop\n    /* \"SingAuction.sol\":361:5488  contract Auction {... */\n  jump(tag_14)\n    /* \"#utility.yul\":14:357   */\ntag_3:\n    /* \"#utility.yul\":93:99   */\n  0x00\n    /* \"#utility.yul\":101:107   */\n  0x00\n    /* \"#utility.yul\":154:156   */\n  0x40\n    /* \"#utility.yul\":142:151   */\n  dup4\n    /* \"#utility.yul\":133:140   */\n  dup6\n    /* \"#utility.yul\":129:152   */\n  sub\n    /* \"#utility.yul\":125:157   */\n  slt\n    /* \"#utility.yul\":122:174   */\n  iszero\n  tag_16\n  jumpi\n    /* \"#utility.yul\":170:171   */\n  0x00\n    /* \"#utility.yul\":167:168   */\n  0x00\n    /* \"#utility.yul\":160:172   */\n  revert\n    /* \"#utility.yul\":122:174   */\ntag_16:\n  pop\n  pop\n    /* \"#utility.yul\":215:231   */\n  dup1\n  mload\n    /* \"#utility.yul\":321:323   */\n  0x20\n    /* \"#utility.yul\":306:324   */\n  swap1\n  swap2\n  add\n    /* \"#utility.yul\":300:325   */\n  mload\n    /* \"#utility.yul\":215:231   */\n  swap1\n  swap3\n    /* \"#utility.yul\":300:325   */\n  swap1\n  swap2\n  pop\n    /* \"#utility.yul\":14:357   */\n  jump\t// out\n    /* \"#utility.yul\":767:989   */\ntag_10:\n    /* \"#utility.yul\":832:841   */\n  dup1\n  dup3\n  add\n    /* \"#utility.yul\":853:863   */\n  dup1\n  dup3\n  gt\n    /* \"#utility.yul\":850:983   */\n  iszero\n  tag_19\n  jumpi\n    /* \"#utility.yul\":905:915   */\n  0x4e487b71\n    /* \"#utility.yul\":900:903   */\n  0xe0\n    /* \"#utility.yul\":896:916   */\n  shl\n    /* \"#utility.yul\":893:894   */\n  0x00\n    /* \"#utility.yul\":886:917   */\n  mstore\n    /* \"#utility.yul\":940:944   */\n  0x11\n    /* \"#utility.yul\":937:938   */\n  0x04\n    /* \"#utility.yul\":930:945   */\n  mstore\n    /* \"#utility.yul\":968:972   */\n  0x24\n    /* \"#utility.yul\":965:966   */\n  0x00\n    /* \"#utility.yul\":958:973   */\n  revert\n    /* \"#utility.yul\":850:983   */\ntag_19:\n    /* \"#utility.yul\":767:989   */\n  swap3\n  swap2\n  pop\n  pop\n  jump\t// out\n    /* \"#utility.yul\":994:1171   */\ntag_14:\n    /* \"SingAuction.sol\":361:5488  contract Auction {... */\n  dataSize(sub_0)\n  dup1\n  dataOffset(sub_0)\n  0x00\n  codecopy\n  0x00\n  return\nstop\n\nsub_0: assembly {\n        /* \"SingAuction.sol\":361:5488  contract Auction {... */\n      mstore(0x40, 0x80)\n      jumpi(tag_1, lt(calldatasize, 0x04))\n      shr(0xe0, calldataload(0x00))\n      dup1\n      0x7cf2ed22\n      gt\n      tag_14\n      jumpi\n      dup1\n      0x7cf2ed22\n      eq\n      tag_8\n      jumpi\n      dup1\n      0x8da5cb5b\n      eq\n      tag_9\n      jumpi\n      dup1\n      0xb3f05b97\n      eq\n      tag_10\n      jumpi\n      dup1\n      0xb7e03264\n      eq\n      tag_11\n      jumpi\n      dup1\n      0xc24a0f8b\n      eq\n      tag_12\n      jumpi\n      dup1\n      0xdb2e21bc\n      eq\n      tag_13\n      jumpi\n      revert(0x00, 0x00)\n    tag_14:\n      dup1\n      0x14d2687c\n      eq\n      tag_2\n      jumpi\n      dup1\n      0x1998aeef\n      eq\n      tag_3\n      jumpi\n      dup1\n      0x1ce2bcf5\n      eq\n      tag_4\n      jumpi\n      dup1\n      0x3260f218\n      eq\n      tag_5\n      jumpi\n      dup1\n      0x4423c5f1\n      eq\n      tag_6\n      jumpi\n      dup1\n      0x56377d16\n      eq\n      tag_7\n      jumpi\n    tag_1:\n      revert(0x00, 0x00)\n        /* \"SingAuction.sol\":3199:3286  function showBids() external view returns (Bid[] memory) {... */\n    tag_2:\n      callvalue\n      dup1\n      iszero\n      tag_15\n      jumpi\n      revert(0x00, 0x00)\n    tag_15:\n      pop\n      tag_16\n      tag_17\n      jump\t// in\n    tag_16:\n      mload(0x40)\n      tag_18\n      swap2\n      swap1\n      tag_19\n      jump\t// in\n    tag_18:\n      mload(0x40)\n      dup1\n      swap2\n      sub\n      swap1\n      return\n        /* \"SingAuction.sol\":2200:2843  function bid() external payable whenActive {... */\n    tag_3:\n      tag_20\n      tag_21\n      jump\t// in\n    tag_20:\n      stop\n        /* \"SingAuction.sol\":4614:5030  function partialRefund() external whenActive {... */\n    tag_4:\n      callvalue\n      dup1\n      iszero\n      tag_22\n      jumpi\n      revert(0x00, 0x00)\n    tag_22:\n      pop\n      tag_20\n      tag_24\n      jump\t// in\n        /* \"SingAuction.sol\":570:610  mapping(address => MyBids) public myBids */\n    tag_5:\n      callvalue\n      dup1\n      iszero\n      tag_25\n      jumpi\n      revert(0x00, 0x00)\n    tag_25:\n      pop\n      tag_26\n      tag_27\n      calldatasize\n      0x04\n      tag_28\n      jump\t// in\n    tag_27:\n      0x01\n      0x20\n      dup2\n      swap1\n      mstore\n      0x00\n      swap2\n      dup3\n      mstore\n      0x40\n      swap1\n      swap2\n      keccak256\n      dup1\n      sload\n      swap2\n      add\n      sload\n      dup3\n      jump\n    tag_26:\n      0x40\n      dup1\n      mload\n        /* \"#utility.yul\":1242:1267   */\n      swap3\n      dup4\n      mstore\n        /* \"#utility.yul\":1298:1300   */\n      0x20\n        /* \"#utility.yul\":1283:1301   */\n      dup4\n      add\n        /* \"#utility.yul\":1276:1310   */\n      swap2\n      swap1\n      swap2\n      mstore\n        /* \"#utility.yul\":1215:1233   */\n      add\n        /* \"SingAuction.sol\":570:610  mapping(address => MyBids) public myBids */\n      tag_18\n        /* \"#utility.yul\":1068:1316   */\n      jump\n        /* \"SingAuction.sol\":546:563  Bid[] public bids */\n    tag_6:\n      callvalue\n      dup1\n      iszero\n      tag_32\n      jumpi\n      revert(0x00, 0x00)\n    tag_32:\n      pop\n      tag_33\n      tag_34\n      calldatasize\n      0x04\n      tag_35\n      jump\t// in\n    tag_34:\n      tag_36\n      jump\t// in\n    tag_33:\n      0x40\n      dup1\n      mload\n      sub(shl(0xa0, 0x01), 0x01)\n        /* \"#utility.yul\":1698:1730   */\n      swap1\n      swap4\n      and\n        /* \"#utility.yul\":1680:1731   */\n      dup4\n      mstore\n        /* \"#utility.yul\":1762:1764   */\n      0x20\n        /* \"#utility.yul\":1747:1765   */\n      dup4\n      add\n        /* \"#utility.yul\":1740:1774   */\n      swap2\n      swap1\n      swap2\n      mstore\n        /* \"#utility.yul\":1653:1671   */\n      add\n        /* \"SingAuction.sol\":546:563  Bid[] public bids */\n      tag_18\n        /* \"#utility.yul\":1506:1780   */\n      jump\n        /* \"SingAuction.sol\":648:675  uint256 public initialValue */\n    tag_7:\n      callvalue\n      dup1\n      iszero\n      tag_39\n      jumpi\n      revert(0x00, 0x00)\n    tag_39:\n      pop\n      tag_40\n      sload(0x03)\n      dup2\n      jump\n    tag_40:\n      mload(0x40)\n        /* \"#utility.yul\":1931:1956   */\n      swap1\n      dup2\n      mstore\n        /* \"#utility.yul\":1919:1921   */\n      0x20\n        /* \"#utility.yul\":1904:1922   */\n      add\n        /* \"SingAuction.sol\":648:675  uint256 public initialValue */\n      tag_18\n        /* \"#utility.yul\":1785:1962   */\n      jump\n        /* \"SingAuction.sol\":3363:4531  function withdrawDeposits() external whenNotActive onlyOwner {... */\n    tag_8:\n      callvalue\n      dup1\n      iszero\n      tag_44\n      jumpi\n      revert(0x00, 0x00)\n    tag_44:\n      pop\n      tag_20\n      tag_46\n      jump\t// in\n        /* \"SingAuction.sol\":682:702  address public owner */\n    tag_9:\n      callvalue\n      dup1\n      iszero\n      tag_47\n      jumpi\n      revert(0x00, 0x00)\n    tag_47:\n      pop\n      sload(0x04)\n      tag_48\n      swap1\n      sub(shl(0xa0, 0x01), 0x01)\n      and\n      dup2\n      jump\n    tag_48:\n      mload(0x40)\n      sub(shl(0xa0, 0x01), 0x01)\n        /* \"#utility.yul\":2131:2163   */\n      swap1\n      swap2\n      and\n        /* \"#utility.yul\":2113:2164   */\n      dup2\n      mstore\n        /* \"#utility.yul\":2101:2103   */\n      0x20\n        /* \"#utility.yul\":2086:2104   */\n      add\n        /* \"SingAuction.sol\":682:702  address public owner */\n      tag_18\n        /* \"#utility.yul\":1967:2170   */\n      jump\n        /* \"SingAuction.sol\":709:730  bool public finalized */\n    tag_10:\n      callvalue\n      dup1\n      iszero\n      tag_52\n      jumpi\n      revert(0x00, 0x00)\n    tag_52:\n      pop\n      sload(0x04)\n      tag_53\n      swap1\n      shl(0xa0, 0x01)\n      swap1\n      div\n      0xff\n      and\n      dup2\n      jump\n    tag_53:\n      mload(0x40)\n        /* \"#utility.yul\":2340:2354   */\n      swap1\n      iszero\n        /* \"#utility.yul\":2333:2355   */\n      iszero\n        /* \"#utility.yul\":2315:2356   */\n      dup2\n      mstore\n        /* \"#utility.yul\":2303:2305   */\n      0x20\n        /* \"#utility.yul\":2288:2306   */\n      add\n        /* \"SingAuction.sol\":709:730  bool public finalized */\n      tag_18\n        /* \"#utility.yul\":2175:2362   */\n      jump\n        /* \"SingAuction.sol\":2936:3097  function showWinner() external view returns (address) {... */\n    tag_11:\n      callvalue\n      dup1\n      iszero\n      tag_57\n      jumpi\n      revert(0x00, 0x00)\n    tag_57:\n      pop\n      tag_48\n      tag_59\n      jump\t// in\n        /* \"SingAuction.sol\":619:641  uint256 public endDate */\n    tag_12:\n      callvalue\n      dup1\n      iszero\n      tag_61\n      jumpi\n      revert(0x00, 0x00)\n    tag_61:\n      pop\n      tag_40\n      sload(0x02)\n      dup2\n      jump\n        /* \"SingAuction.sol\":5115:5485  function emergencyWithdraw() external onlyOwner whenNotActive {... */\n    tag_13:\n      callvalue\n      dup1\n      iszero\n      tag_65\n      jumpi\n      revert(0x00, 0x00)\n    tag_65:\n      pop\n      tag_20\n      tag_67\n      jump\t// in\n        /* \"SingAuction.sol\":3199:3286  function showBids() external view returns (Bid[] memory) {... */\n    tag_17:\n        /* \"SingAuction.sol\":3242:3254  Bid[] memory */\n      0x60\n        /* \"SingAuction.sol\":3274:3278  bids */\n      0x00\n        /* \"SingAuction.sol\":3267:3278  return bids */\n      dup1\n      sload\n      dup1\n      0x20\n      mul\n      0x20\n      add\n      mload(0x40)\n      swap1\n      dup2\n      add\n      0x40\n      mstore\n      dup1\n      swap3\n      swap2\n      swap1\n      dup2\n      dup2\n      mstore\n      0x20\n      add\n      0x00\n      swap1\n    tag_69:\n      dup3\n      dup3\n      lt\n      iszero\n      tag_70\n      jumpi\n      0x00\n      dup5\n      dup2\n      mstore\n      0x20\n      swap1\n      dup2\n      swap1\n      keccak256\n      0x40\n      dup1\n      mload\n      dup1\n      dup3\n      add\n      swap1\n      swap2\n      mstore\n      0x02\n      dup6\n      mul\n      swap1\n      swap2\n      add\n      dup1\n      sload\n      sub(shl(0xa0, 0x01), 0x01)\n      and\n      dup3\n      mstore\n      0x01\n      swap1\n      dup2\n      add\n      sload\n      dup3\n      dup5\n      add\n      mstore\n      swap1\n      dup4\n      mstore\n      swap1\n      swap3\n      add\n      swap2\n      add\n      jump(tag_69)\n    tag_70:\n      pop\n      pop\n      pop\n      pop\n      swap1\n      pop\n        /* \"SingAuction.sol\":3199:3286  function showBids() external view returns (Bid[] memory) {... */\n      swap1\n      jump\t// out\n        /* \"SingAuction.sol\":2200:2843  function bid() external payable whenActive {... */\n    tag_21:\n        /* \"SingAuction.sol\":1851:1858  endDate */\n      sload(0x02)\n        /* \"SingAuction.sol\":1833:1848  block.timestamp */\n      timestamp\n        /* \"SingAuction.sol\":1833:1858  block.timestamp < endDate */\n      lt\n        /* \"SingAuction.sol\":1825:1876  require(block.timestamp < endDate, \"Auction ended\") */\n      tag_73\n      jumpi\n      mload(0x40)\n      shl(0xe5, 0x461bcd)\n      dup2\n      mstore\n        /* \"#utility.yul\":2569:2571   */\n      0x20\n        /* \"SingAuction.sol\":1825:1876  require(block.timestamp < endDate, \"Auction ended\") */\n      0x04\n      dup3\n      add\n        /* \"#utility.yul\":2551:2572   */\n      mstore\n        /* \"#utility.yul\":2608:2610   */\n      0x0d\n        /* \"#utility.yul\":2588:2606   */\n      0x24\n      dup3\n      add\n        /* \"#utility.yul\":2581:2611   */\n      mstore\n      shl(0x9a, 0x105d58dd1a5bdb88195b991959)\n        /* \"#utility.yul\":2627:2645   */\n      0x44\n      dup3\n      add\n        /* \"#utility.yul\":2620:2663   */\n      mstore\n        /* \"#utility.yul\":2680:2698   */\n      0x64\n      add\n        /* \"SingAuction.sol\":1825:1876  require(block.timestamp < endDate, \"Auction ended\") */\n    tag_74:\n      mload(0x40)\n      dup1\n      swap2\n      sub\n      swap1\n      revert\n    tag_73:\n        /* \"SingAuction.sol\":2254:2271  uint256 totalBids */\n      0x00\n        /* \"SingAuction.sol\":2274:2285  bids.length */\n      dup1\n      sload\n      swap1\n        /* \"SingAuction.sol\":2315:2329  totalBids == 0 */\n      dup2\n      iszero\n        /* \"SingAuction.sol\":2315:2385  totalBids == 0 ? initialValue : bids[totalBids - 1].amount * 105 / 100 */\n      tag_77\n      jumpi\n        /* \"SingAuction.sol\":2382:2385  100 */\n      0x64\n        /* \"SingAuction.sol\":2347:2351  bids */\n      0x00\n        /* \"SingAuction.sol\":2352:2365  totalBids - 1 */\n      tag_78\n        /* \"SingAuction.sol\":2364:2365  1 */\n      0x01\n        /* \"SingAuction.sol\":2352:2361  totalBids */\n      dup6\n        /* \"SingAuction.sol\":2352:2365  totalBids - 1 */\n      tag_79\n      jump\t// in\n    tag_78:\n        /* \"SingAuction.sol\":2347:2366  bids[totalBids - 1] */\n      dup2\n      sload\n      dup2\n      lt\n      tag_81\n      jumpi\n      tag_81\n      tag_82\n      jump\t// in\n    tag_81:\n      swap1\n      0x00\n      mstore\n      keccak256(0x00, 0x20)\n      swap1\n      0x02\n      mul\n      add\n        /* \"SingAuction.sol\":2347:2373  bids[totalBids - 1].amount */\n      0x01\n      add\n      sload\n        /* \"SingAuction.sol\":2376:2379  105 */\n      0x69\n        /* \"SingAuction.sol\":2347:2379  bids[totalBids - 1].amount * 105 */\n      tag_84\n      swap2\n      swap1\n      tag_85\n      jump\t// in\n    tag_84:\n        /* \"SingAuction.sol\":2347:2385  bids[totalBids - 1].amount * 105 / 100 */\n      tag_86\n      swap2\n      swap1\n      tag_87\n      jump\t// in\n    tag_86:\n        /* \"SingAuction.sol\":2315:2385  totalBids == 0 ? initialValue : bids[totalBids - 1].amount * 105 / 100 */\n      jump(tag_88)\n    tag_77:\n        /* \"SingAuction.sol\":2332:2344  initialValue */\n      sload(0x03)\n        /* \"SingAuction.sol\":2315:2385  totalBids == 0 ? initialValue : bids[totalBids - 1].amount * 105 / 100 */\n    tag_88:\n        /* \"SingAuction.sol\":2296:2385  uint256 minValue = totalBids == 0 ? initialValue : bids[totalBids - 1].amount * 105 / 100 */\n      swap1\n      pop\n        /* \"SingAuction.sol\":2417:2425  minValue */\n      dup1\n        /* \"SingAuction.sol\":2404:2413  msg.value */\n      callvalue\n        /* \"SingAuction.sol\":2404:2425  msg.value >= minValue */\n      lt\n      iszero\n        /* \"SingAuction.sol\":2396:2441  require(msg.value >= minValue, \"Bid too low\") */\n      tag_89\n      jumpi\n      mload(0x40)\n      shl(0xe5, 0x461bcd)\n      dup2\n      mstore\n        /* \"#utility.yul\":3703:3705   */\n      0x20\n        /* \"SingAuction.sol\":2396:2441  require(msg.value >= minValue, \"Bid too low\") */\n      0x04\n      dup3\n      add\n        /* \"#utility.yul\":3685:3706   */\n      mstore\n        /* \"#utility.yul\":3742:3744   */\n      0x0b\n        /* \"#utility.yul\":3722:3740   */\n      0x24\n      dup3\n      add\n        /* \"#utility.yul\":3715:3745   */\n      mstore\n      shl(0xa8, 0x42696420746f6f206c6f77)\n        /* \"#utility.yul\":3761:3779   */\n      0x44\n      dup3\n      add\n        /* \"#utility.yul\":3754:3795   */\n      mstore\n        /* \"#utility.yul\":3812:3830   */\n      0x64\n      add\n        /* \"SingAuction.sol\":2396:2441  require(msg.value >= minValue, \"Bid too low\") */\n      tag_74\n        /* \"#utility.yul\":3501:3836   */\n      jump\n        /* \"SingAuction.sol\":2396:2441  require(msg.value >= minValue, \"Bid too low\") */\n    tag_89:\n        /* \"SingAuction.sol\":2486:2496  msg.sender */\n      caller\n        /* \"SingAuction.sol\":2479:2497  myBids[msg.sender] */\n      0x00\n      swap1\n      dup2\n      mstore\n        /* \"SingAuction.sol\":2479:2485  myBids */\n      0x01\n        /* \"SingAuction.sol\":2479:2497  myBids[msg.sender] */\n      0x20\n      dup2\n      swap1\n      mstore\n      0x40\n      dup3\n      keccak256\n        /* \"SingAuction.sol\":2505:2514  msg.value */\n      callvalue\n        /* \"SingAuction.sol\":2479:2514  myBids[msg.sender].last = msg.value */\n      dup1\n      dup3\n      sstore\n        /* \"SingAuction.sol\":2525:2555  myBids[msg.sender].accumulated */\n      swap2\n      add\n        /* \"SingAuction.sol\":2525:2568  myBids[msg.sender].accumulated += msg.value */\n      dup1\n      sload\n        /* \"SingAuction.sol\":2505:2514  msg.value */\n      swap2\n      swap3\n        /* \"SingAuction.sol\":2525:2555  myBids[msg.sender].accumulated */\n      swap1\n      swap2\n        /* \"SingAuction.sol\":2525:2568  myBids[msg.sender].accumulated += msg.value */\n      tag_92\n      swap1\n        /* \"SingAuction.sol\":2505:2514  msg.value */\n      dup5\n      swap1\n        /* \"SingAuction.sol\":2525:2568  myBids[msg.sender].accumulated += msg.value */\n      tag_93\n      jump\t// in\n    tag_92:\n      swap1\n      swap2\n      sstore\n      pop\n      pop\n        /* \"SingAuction.sol\":2589:2615  Bid(msg.sender, msg.value) */\n      0x40\n      dup1\n      mload\n      dup1\n      dup3\n      add\n      swap1\n      swap2\n      mstore\n        /* \"SingAuction.sol\":2593:2603  msg.sender */\n      caller\n        /* \"SingAuction.sol\":2589:2615  Bid(msg.sender, msg.value) */\n      dup2\n      mstore\n        /* \"SingAuction.sol\":2605:2614  msg.value */\n      callvalue\n        /* \"SingAuction.sol\":2589:2615  Bid(msg.sender, msg.value) */\n      0x20\n      dup3\n      add\n      swap1\n      dup2\n      mstore\n      0x00\n        /* \"SingAuction.sol\":2579:2616  bids.push(Bid(msg.sender, msg.value)) */\n      dup1\n      sload\n      0x01\n      dup2\n      add\n      dup3\n      sstore\n      swap1\n      dup1\n      mstore\n      swap2\n      mload\n      0x290decd9548b62a8d60345a988386fc84ba6bc95484008f6362f93160ef3e563\n      0x02\n      swap1\n      swap4\n      mul\n      swap3\n      dup4\n      add\n      dup1\n      sload\n      not(sub(shl(0xa0, 0x01), 0x01))\n      and\n      sub(shl(0xa0, 0x01), 0x01)\n      swap1\n      swap3\n      and\n      swap2\n      swap1\n      swap2\n      or\n      swap1\n      sstore\n      mload\n      0x290decd9548b62a8d60345a988386fc84ba6bc95484008f6362f93160ef3e564\n      swap1\n      swap2\n      add\n      sstore\n        /* \"SingAuction.sol\":2711:2739  block.timestamp + 10 minutes */\n      tag_95\n        /* \"SingAuction.sol\":2711:2726  block.timestamp */\n      timestamp\n        /* \"SingAuction.sol\":2729:2739  10 minutes */\n      0x0258\n        /* \"SingAuction.sol\":2711:2739  block.timestamp + 10 minutes */\n      tag_93\n      jump\t// in\n    tag_95:\n        /* \"SingAuction.sol\":2700:2707  endDate */\n      sload(0x02)\n        /* \"SingAuction.sol\":2700:2739  endDate <= block.timestamp + 10 minutes */\n      gt\n        /* \"SingAuction.sol\":2696:2789  if (endDate <= block.timestamp + 10 minutes) {... */\n      tag_96\n      jumpi\n        /* \"SingAuction.sol\":2767:2777  10 minutes */\n      0x0258\n        /* \"SingAuction.sol\":2756:2763  endDate */\n      0x02\n      0x00\n        /* \"SingAuction.sol\":2756:2777  endDate += 10 minutes */\n      dup3\n      dup3\n      sload\n      tag_97\n      swap2\n      swap1\n      tag_93\n      jump\t// in\n    tag_97:\n      swap1\n      swap2\n      sstore\n      pop\n      pop\n        /* \"SingAuction.sol\":2696:2789  if (endDate <= block.timestamp + 10 minutes) {... */\n    tag_96:\n        /* \"SingAuction.sol\":2806:2835  NewBid(msg.sender, msg.value) */\n      mload(0x40)\n        /* \"SingAuction.sol\":2825:2834  msg.value */\n      callvalue\n        /* \"#utility.yul\":1931:1956   */\n      dup2\n      mstore\n        /* \"SingAuction.sol\":2813:2823  msg.sender */\n      caller\n      swap1\n        /* \"SingAuction.sol\":2806:2835  NewBid(msg.sender, msg.value) */\n      0xdd0b6c6a77960e2066c96171b4d7ac9e8b4c184011f38544afa36a5bb63ec59f\n      swap1\n        /* \"#utility.yul\":1919:1921   */\n      0x20\n        /* \"#utility.yul\":1904:1922   */\n      add\n        /* \"SingAuction.sol\":2806:2835  NewBid(msg.sender, msg.value) */\n    tag_98:\n      mload(0x40)\n      dup1\n      swap2\n      sub\n      swap1\n      log2\n        /* \"SingAuction.sol\":2243:2843  {... */\n      pop\n      pop\n        /* \"SingAuction.sol\":2200:2843  function bid() external payable whenActive {... */\n      jump\t// out\n        /* \"SingAuction.sol\":4614:5030  function partialRefund() external whenActive {... */\n    tag_24:\n        /* \"SingAuction.sol\":1851:1858  endDate */\n      sload(0x02)\n        /* \"SingAuction.sol\":1833:1848  block.timestamp */\n      timestamp\n        /* \"SingAuction.sol\":1833:1858  block.timestamp < endDate */\n      lt\n        /* \"SingAuction.sol\":1825:1876  require(block.timestamp < endDate, \"Auction ended\") */\n      tag_100\n      jumpi\n      mload(0x40)\n      shl(0xe5, 0x461bcd)\n      dup2\n      mstore\n        /* \"#utility.yul\":2569:2571   */\n      0x20\n        /* \"SingAuction.sol\":1825:1876  require(block.timestamp < endDate, \"Auction ended\") */\n      0x04\n      dup3\n      add\n        /* \"#utility.yul\":2551:2572   */\n      mstore\n        /* \"#utility.yul\":2608:2610   */\n      0x0d\n        /* \"#utility.yul\":2588:2606   */\n      0x24\n      dup3\n      add\n        /* \"#utility.yul\":2581:2611   */\n      mstore\n      shl(0x9a, 0x105d58dd1a5bdb88195b991959)\n        /* \"#utility.yul\":2627:2645   */\n      0x44\n      dup3\n      add\n        /* \"#utility.yul\":2620:2663   */\n      mstore\n        /* \"#utility.yul\":2680:2698   */\n      0x64\n      add\n        /* \"SingAuction.sol\":1825:1876  require(block.timestamp < endDate, \"Auction ended\") */\n      tag_74\n        /* \"#utility.yul\":2367:2704   */\n      jump\n        /* \"SingAuction.sol\":1825:1876  require(block.timestamp < endDate, \"Auction ended\") */\n    tag_100:\n        /* \"SingAuction.sol\":4726:4736  msg.sender */\n      caller\n        /* \"SingAuction.sol\":4670:4683  uint256 value */\n      0x00\n        /* \"SingAuction.sol\":4719:4737  myBids[msg.sender] */\n      swap1\n      dup2\n      mstore\n        /* \"SingAuction.sol\":4719:4725  myBids */\n      0x01\n        /* \"SingAuction.sol\":4719:4737  myBids[msg.sender] */\n      0x20\n      dup2\n      swap1\n      mstore\n      0x40\n      dup3\n      keccak256\n        /* \"SingAuction.sol\":4719:4742  myBids[msg.sender].last */\n      dup1\n      sload\n        /* \"SingAuction.sol\":4686:4716  myBids[msg.sender].accumulated */\n      swap2\n      add\n      sload\n        /* \"SingAuction.sol\":4686:4742  myBids[msg.sender].accumulated - myBids[msg.sender].last */\n      tag_103\n      swap2\n        /* \"SingAuction.sol\":4719:4742  myBids[msg.sender].last */\n      swap1\n        /* \"SingAuction.sol\":4686:4742  myBids[msg.sender].accumulated - myBids[msg.sender].last */\n      tag_79\n      jump\t// in\n    tag_103:\n        /* \"SingAuction.sol\":4670:4742  uint256 value = myBids[msg.sender].accumulated - myBids[msg.sender].last */\n      swap1\n      pop\n        /* \"SingAuction.sol\":4769:4770  0 */\n      0x00\n        /* \"SingAuction.sol\":4761:4766  value */\n      dup2\n        /* \"SingAuction.sol\":4761:4770  value > 0 */\n      gt\n        /* \"SingAuction.sol\":4753:4796  require(value > 0, \"No excess to withdraw\") */\n      tag_104\n      jumpi\n      mload(0x40)\n      shl(0xe5, 0x461bcd)\n      dup2\n      mstore\n        /* \"#utility.yul\":4173:4175   */\n      0x20\n        /* \"SingAuction.sol\":4753:4796  require(value > 0, \"No excess to withdraw\") */\n      0x04\n      dup3\n      add\n        /* \"#utility.yul\":4155:4176   */\n      mstore\n        /* \"#utility.yul\":4212:4214   */\n      0x15\n        /* \"#utility.yul\":4192:4210   */\n      0x24\n      dup3\n      add\n        /* \"#utility.yul\":4185:4215   */\n      mstore\n      shl(0x58, 0x4e6f2065786365737320746f207769746864726177)\n        /* \"#utility.yul\":4231:4249   */\n      0x44\n      dup3\n      add\n        /* \"#utility.yul\":4224:4275   */\n      mstore\n        /* \"#utility.yul\":4292:4310   */\n      0x64\n      add\n        /* \"SingAuction.sol\":4753:4796  require(value > 0, \"No excess to withdraw\") */\n      tag_74\n        /* \"#utility.yul\":3971:4316   */\n      jump\n        /* \"SingAuction.sol\":4753:4796  require(value > 0, \"No excess to withdraw\") */\n    tag_104:\n        /* \"SingAuction.sol\":4849:4859  msg.sender */\n      caller\n        /* \"SingAuction.sol\":4842:4860  myBids[msg.sender] */\n      0x00\n      dup2\n      dup2\n      mstore\n        /* \"SingAuction.sol\":4842:4848  myBids */\n      0x01\n        /* \"SingAuction.sol\":4842:4860  myBids[msg.sender] */\n      0x20\n      dup2\n      swap1\n      mstore\n      0x40\n      dup1\n      dup4\n      keccak256\n        /* \"SingAuction.sol\":4842:4865  myBids[msg.sender].last */\n      dup1\n      sload\n        /* \"SingAuction.sol\":4809:4839  myBids[msg.sender].accumulated */\n      swap3\n      add\n        /* \"SingAuction.sol\":4809:4865  myBids[msg.sender].accumulated = myBids[msg.sender].last */\n      swap2\n      swap1\n      swap2\n      sstore\n        /* \"SingAuction.sol\":4892:4934  payable(msg.sender).call{value: value}(\"\") */\n      mload\n        /* \"SingAuction.sol\":4842:4860  myBids[msg.sender] */\n      swap1\n      swap2\n        /* \"SingAuction.sol\":4849:4859  msg.sender */\n      swap1\n        /* \"SingAuction.sol\":4924:4929  value */\n      dup4\n      swap1\n        /* \"SingAuction.sol\":4842:4860  myBids[msg.sender] */\n      dup4\n        /* \"SingAuction.sol\":4892:4934  payable(msg.sender).call{value: value}(\"\") */\n      dup2\n        /* \"SingAuction.sol\":4842:4860  myBids[msg.sender] */\n      dup2\n        /* \"SingAuction.sol\":4892:4934  payable(msg.sender).call{value: value}(\"\") */\n      dup2\n        /* \"SingAuction.sol\":4924:4929  value */\n      dup6\n        /* \"SingAuction.sol\":4849:4859  msg.sender */\n      dup8\n        /* \"SingAuction.sol\":4892:4934  payable(msg.sender).call{value: value}(\"\") */\n      gas\n      call\n      swap3\n      pop\n      pop\n      pop\n      returndatasize\n      dup1\n      0x00\n      dup2\n      eq\n      tag_111\n      jumpi\n      mload(0x40)\n      swap2\n      pop\n      and(add(returndatasize, 0x3f), not(0x1f))\n      dup3\n      add\n      0x40\n      mstore\n      returndatasize\n      dup3\n      mstore\n      returndatasize\n      0x00\n      0x20\n      dup5\n      add\n      returndatacopy\n      jump(tag_110)\n    tag_111:\n      0x60\n      swap2\n      pop\n    tag_110:\n      pop\n        /* \"SingAuction.sol\":4876:4934  (bool sent, ) = payable(msg.sender).call{value: value}(\"\") */\n      pop\n      swap1\n      pop\n        /* \"SingAuction.sol\":4953:4957  sent */\n      dup1\n        /* \"SingAuction.sol\":4945:4979  require(sent, \"Withdrawal failed\") */\n      tag_112\n      jumpi\n      mload(0x40)\n      shl(0xe5, 0x461bcd)\n      dup2\n      mstore\n        /* \"#utility.yul\":4733:4735   */\n      0x20\n        /* \"SingAuction.sol\":4945:4979  require(sent, \"Withdrawal failed\") */\n      0x04\n      dup3\n      add\n        /* \"#utility.yul\":4715:4736   */\n      mstore\n        /* \"#utility.yul\":4772:4774   */\n      0x11\n        /* \"#utility.yul\":4752:4770   */\n      0x24\n      dup3\n      add\n        /* \"#utility.yul\":4745:4775   */\n      mstore\n      shl(0x7a, 0x15da5d1a191c985dd85b0819985a5b1959)\n        /* \"#utility.yul\":4791:4809   */\n      0x44\n      dup3\n      add\n        /* \"#utility.yul\":4784:4831   */\n      mstore\n        /* \"#utility.yul\":4848:4866   */\n      0x64\n      add\n        /* \"SingAuction.sol\":4945:4979  require(sent, \"Withdrawal failed\") */\n      tag_74\n        /* \"#utility.yul\":4531:4872   */\n      jump\n        /* \"SingAuction.sol\":4945:4979  require(sent, \"Withdrawal failed\") */\n    tag_112:\n        /* \"SingAuction.sol\":4995:5022  Withdraw(msg.sender, value) */\n      mload(0x40)\n        /* \"#utility.yul\":1931:1956   */\n      dup3\n      dup2\n      mstore\n        /* \"SingAuction.sol\":5004:5014  msg.sender */\n      caller\n      swap1\n        /* \"SingAuction.sol\":4995:5022  Withdraw(msg.sender, value) */\n      0x884edad9ce6fa2440d8a54cc123490eb96d2768479d49ff9c7366125a9424364\n      swap1\n        /* \"#utility.yul\":1919:1921   */\n      0x20\n        /* \"#utility.yul\":1904:1922   */\n      add\n        /* \"SingAuction.sol\":4995:5022  Withdraw(msg.sender, value) */\n      tag_98\n        /* \"#utility.yul\":1785:1962   */\n      jump\n        /* \"SingAuction.sol\":546:563  Bid[] public bids */\n    tag_36:\n      0x00\n      dup2\n      dup2\n      sload\n      dup2\n      lt\n      tag_116\n      jumpi\n      0x00\n      dup1\n      revert\n    tag_116:\n      0x00\n      swap2\n      dup3\n      mstore\n      0x20\n      swap1\n      swap2\n      keccak256\n      0x02\n      swap1\n      swap2\n      mul\n      add\n      dup1\n      sload\n      0x01\n      swap1\n      swap2\n      add\n      sload\n      sub(shl(0xa0, 0x01), 0x01)\n      swap1\n      swap2\n      and\n      swap2\n      pop\n      dup3\n      jump\t// out\n        /* \"SingAuction.sol\":3363:4531  function withdrawDeposits() external whenNotActive onlyOwner {... */\n    tag_46:\n        /* \"SingAuction.sol\":1967:1974  endDate */\n      sload(0x02)\n        /* \"SingAuction.sol\":1948:1963  block.timestamp */\n      timestamp\n        /* \"SingAuction.sol\":1948:1974  block.timestamp >= endDate */\n      lt\n      iszero\n        /* \"SingAuction.sol\":1940:1998  require(block.timestamp >= endDate, \"Auction in progress\") */\n      tag_119\n      jumpi\n      mload(0x40)\n      shl(0xe5, 0x461bcd)\n      dup2\n      mstore\n        /* \"#utility.yul\":5079:5081   */\n      0x20\n        /* \"SingAuction.sol\":1940:1998  require(block.timestamp >= endDate, \"Auction in progress\") */\n      0x04\n      dup3\n      add\n        /* \"#utility.yul\":5061:5082   */\n      mstore\n        /* \"#utility.yul\":5118:5120   */\n      0x13\n        /* \"#utility.yul\":5098:5116   */\n      0x24\n      dup3\n      add\n        /* \"#utility.yul\":5091:5121   */\n      mstore\n      shl(0x68, 0x41756374696f6e20696e2070726f6772657373)\n        /* \"#utility.yul\":5137:5155   */\n      0x44\n      dup3\n      add\n        /* \"#utility.yul\":5130:5179   */\n      mstore\n        /* \"#utility.yul\":5196:5214   */\n      0x64\n      add\n        /* \"SingAuction.sol\":1940:1998  require(block.timestamp >= endDate, \"Auction in progress\") */\n      tag_74\n        /* \"#utility.yul\":4877:5220   */\n      jump\n        /* \"SingAuction.sol\":1940:1998  require(block.timestamp >= endDate, \"Auction in progress\") */\n    tag_119:\n        /* \"SingAuction.sol\":2080:2085  owner */\n      and(sub(shl(0xa0, 0x01), 0x01), sload(0x04))\n        /* \"SingAuction.sol\":2066:2076  msg.sender */\n      caller\n        /* \"SingAuction.sol\":2066:2085  msg.sender == owner */\n      eq\n        /* \"SingAuction.sol\":2058:2104  require(msg.sender == owner, \"Not authorized\") */\n      tag_123\n      jumpi\n      mload(0x40)\n      shl(0xe5, 0x461bcd)\n      dup2\n      mstore\n        /* \"#utility.yul\":5427:5429   */\n      0x20\n        /* \"SingAuction.sol\":2058:2104  require(msg.sender == owner, \"Not authorized\") */\n      0x04\n      dup3\n      add\n        /* \"#utility.yul\":5409:5430   */\n      mstore\n        /* \"#utility.yul\":5466:5468   */\n      0x0e\n        /* \"#utility.yul\":5446:5464   */\n      0x24\n      dup3\n      add\n        /* \"#utility.yul\":5439:5469   */\n      mstore\n      shl(0x92, 0x139bdd08185d5d1a1bdc9a5e9959)\n        /* \"#utility.yul\":5485:5503   */\n      0x44\n      dup3\n      add\n        /* \"#utility.yul\":5478:5522   */\n      mstore\n        /* \"#utility.yul\":5539:5557   */\n      0x64\n      add\n        /* \"SingAuction.sol\":2058:2104  require(msg.sender == owner, \"Not authorized\") */\n      tag_74\n        /* \"#utility.yul\":5225:5563   */\n      jump\n        /* \"SingAuction.sol\":2058:2104  require(msg.sender == owner, \"Not authorized\") */\n    tag_123:\n        /* \"SingAuction.sol\":3444:3453  finalized */\n      sload(0x04)\n      shl(0xa0, 0x01)\n      swap1\n      div\n      0xff\n      and\n        /* \"SingAuction.sol\":3443:3453  !finalized */\n      iszero\n        /* \"SingAuction.sol\":3435:3475  require(!finalized, \"Already finalized\") */\n      tag_127\n      jumpi\n      mload(0x40)\n      shl(0xe5, 0x461bcd)\n      dup2\n      mstore\n        /* \"#utility.yul\":5770:5772   */\n      0x20\n        /* \"SingAuction.sol\":3435:3475  require(!finalized, \"Already finalized\") */\n      0x04\n      dup3\n      add\n        /* \"#utility.yul\":5752:5773   */\n      mstore\n        /* \"#utility.yul\":5809:5811   */\n      0x11\n        /* \"#utility.yul\":5789:5807   */\n      0x24\n      dup3\n      add\n        /* \"#utility.yul\":5782:5812   */\n      mstore\n      shl(0x7a, 0x105b1c9958591e48199a5b985b1a5e9959)\n        /* \"#utility.yul\":5828:5846   */\n      0x44\n      dup3\n      add\n        /* \"#utility.yul\":5821:5868   */\n      mstore\n        /* \"#utility.yul\":5885:5903   */\n      0x64\n      add\n        /* \"SingAuction.sol\":3435:3475  require(!finalized, \"Already finalized\") */\n      tag_74\n        /* \"#utility.yul\":5568:5909   */\n      jump\n        /* \"SingAuction.sol\":3435:3475  require(!finalized, \"Already finalized\") */\n    tag_127:\n        /* \"SingAuction.sol\":3486:3500  address winner */\n      0x00\n        /* \"SingAuction.sol\":3508:3519  bids.length */\n      dup1\n      sload\n        /* \"SingAuction.sol\":3486:3500  address winner */\n      dup2\n      swap1\n        /* \"SingAuction.sol\":3508:3523  bids.length - 1 */\n      tag_130\n      swap1\n        /* \"SingAuction.sol\":3522:3523  1 */\n      0x01\n      swap1\n        /* \"SingAuction.sol\":3508:3523  bids.length - 1 */\n      tag_79\n      jump\t// in\n    tag_130:\n        /* \"SingAuction.sol\":3503:3524  bids[bids.length - 1] */\n      dup2\n      sload\n      dup2\n      lt\n      tag_132\n      jumpi\n      tag_132\n      tag_82\n      jump\t// in\n    tag_132:\n      0x00\n      swap2\n      dup3\n      mstore\n      0x20\n      dup3\n      keccak256\n      0x02\n      swap1\n      swap2\n      mul\n      add\n        /* \"SingAuction.sol\":3503:3531  bids[bids.length - 1].bidder */\n      sload\n      sub(shl(0xa0, 0x01), 0x01)\n      and\n      swap2\n      pop\n        /* \"SingAuction.sol\":3503:3524  bids[bids.length - 1] */\n      dup1\n        /* \"SingAuction.sol\":3573:4164  for (uint256 i = 0; i < bids.length; i++) {... */\n    tag_134:\n        /* \"SingAuction.sol\":3597:3601  bids */\n      0x00\n        /* \"SingAuction.sol\":3597:3608  bids.length */\n      sload\n        /* \"SingAuction.sol\":3593:3608  i < bids.length */\n      dup2\n      lt\n        /* \"SingAuction.sol\":3573:4164  for (uint256 i = 0; i < bids.length; i++) {... */\n      iszero\n      tag_135\n      jumpi\n        /* \"SingAuction.sol\":3630:3657  address payable participant */\n      0x00\n        /* \"SingAuction.sol\":3668:3672  bids */\n      0x00\n        /* \"SingAuction.sol\":3673:3674  i */\n      dup3\n        /* \"SingAuction.sol\":3668:3675  bids[i] */\n      dup2\n      sload\n      dup2\n      lt\n      tag_138\n      jumpi\n      tag_138\n      tag_82\n      jump\t// in\n    tag_138:\n      0x00\n      swap2\n      dup3\n      mstore\n      0x20\n      swap1\n      swap2\n      keccak256\n      0x02\n      swap1\n      swap2\n      mul\n      add\n        /* \"SingAuction.sol\":3668:3682  bids[i].bidder */\n      sload\n      sub(shl(0xa0, 0x01), 0x01)\n      swap1\n      dup2\n      and\n      swap2\n      pop\n        /* \"SingAuction.sol\":3702:3723  participant == winner */\n      dup5\n      and\n      dup2\n      sub\n        /* \"SingAuction.sol\":3698:3733  if (participant == winner) continue */\n      tag_140\n      jumpi\n        /* \"SingAuction.sol\":3725:3733  continue */\n      pop\n      jump(tag_136)\n        /* \"SingAuction.sol\":3698:3733  if (participant == winner) continue */\n    tag_140:\n      sub(shl(0xa0, 0x01), 0x01)\n        /* \"SingAuction.sol\":3795:3814  myBids[participant] */\n      dup2\n      and\n        /* \"SingAuction.sol\":3779:3792  uint256 value */\n      0x00\n        /* \"SingAuction.sol\":3795:3814  myBids[participant] */\n      swap1\n      dup2\n      mstore\n        /* \"SingAuction.sol\":3795:3801  myBids */\n      0x01\n        /* \"SingAuction.sol\":3795:3814  myBids[participant] */\n      0x20\n      dup2\n      swap1\n      mstore\n      0x40\n      dup3\n      keccak256\n        /* \"SingAuction.sol\":3795:3826  myBids[participant].accumulated */\n      add\n      sload\n      swap1\n        /* \"SingAuction.sol\":3871:3874  100 */\n      0x64\n        /* \"SingAuction.sol\":3858:3868  value * 98 */\n      tag_141\n        /* \"SingAuction.sol\":3795:3826  myBids[participant].accumulated */\n      dup4\n        /* \"SingAuction.sol\":3866:3868  98 */\n      0x62\n        /* \"SingAuction.sol\":3858:3868  value * 98 */\n      tag_85\n      jump\t// in\n    tag_141:\n        /* \"SingAuction.sol\":3858:3874  value * 98 / 100 */\n      tag_142\n      swap2\n      swap1\n      tag_87\n      jump\t// in\n    tag_142:\n        /* \"SingAuction.sol\":3841:3874  uint256 refund = value * 98 / 100 */\n      swap1\n      pop\n        /* \"SingAuction.sol\":3893:3903  refund > 0 */\n      dup1\n      iszero\n        /* \"SingAuction.sol\":3889:4153  if (refund > 0) {... */\n      tag_143\n      jumpi\n      sub(shl(0xa0, 0x01), 0x01)\n        /* \"SingAuction.sol\":3924:3943  myBids[participant] */\n      dup4\n      and\n        /* \"SingAuction.sol\":3958:3959  0 */\n      0x00\n        /* \"SingAuction.sol\":3924:3943  myBids[participant] */\n      dup2\n      dup2\n      mstore\n        /* \"SingAuction.sol\":3924:3930  myBids */\n      0x01\n        /* \"SingAuction.sol\":3924:3943  myBids[participant] */\n      0x20\n      dup2\n      swap1\n      mstore\n      0x40\n      dup1\n      dup4\n      keccak256\n        /* \"SingAuction.sol\":3924:3955  myBids[participant].accumulated */\n      swap1\n      swap2\n      add\n        /* \"SingAuction.sol\":3924:3959  myBids[participant].accumulated = 0 */\n      dup3\n      swap1\n      sstore\n        /* \"SingAuction.sol\":3997:4032  participant.call{value: refund}(\"\") */\n      mload\n        /* \"SingAuction.sol\":3958:3959  0 */\n      swap1\n      swap2\n        /* \"SingAuction.sol\":3924:3943  myBids[participant] */\n      swap1\n        /* \"SingAuction.sol\":4021:4027  refund */\n      dup4\n      swap1\n        /* \"SingAuction.sol\":3958:3959  0 */\n      dup4\n        /* \"SingAuction.sol\":3997:4032  participant.call{value: refund}(\"\") */\n      dup2\n        /* \"SingAuction.sol\":3958:3959  0 */\n      dup2\n        /* \"SingAuction.sol\":3997:4032  participant.call{value: refund}(\"\") */\n      dup2\n        /* \"SingAuction.sol\":4021:4027  refund */\n      dup6\n        /* \"SingAuction.sol\":3924:3943  myBids[participant] */\n      dup8\n        /* \"SingAuction.sol\":3997:4032  participant.call{value: refund}(\"\") */\n      gas\n      call\n      swap3\n      pop\n      pop\n      pop\n      returndatasize\n      dup1\n      0x00\n      dup2\n      eq\n      tag_147\n      jumpi\n      mload(0x40)\n      swap2\n      pop\n      and(add(returndatasize, 0x3f), not(0x1f))\n      dup3\n      add\n      0x40\n      mstore\n      returndatasize\n      dup3\n      mstore\n      returndatasize\n      0x00\n      0x20\n      dup5\n      add\n      returndatacopy\n      jump(tag_146)\n    tag_147:\n      0x60\n      swap2\n      pop\n    tag_146:\n      pop\n        /* \"SingAuction.sol\":3978:4032  (bool success, ) = participant.call{value: refund}(\"\") */\n      pop\n      swap1\n      pop\n        /* \"SingAuction.sol\":4059:4066  success */\n      dup1\n        /* \"SingAuction.sol\":4051:4084  require(success, \"Refund failed\") */\n      tag_148\n      jumpi\n      mload(0x40)\n      shl(0xe5, 0x461bcd)\n      dup2\n      mstore\n        /* \"#utility.yul\":6116:6118   */\n      0x20\n        /* \"SingAuction.sol\":4051:4084  require(success, \"Refund failed\") */\n      0x04\n      dup3\n      add\n        /* \"#utility.yul\":6098:6119   */\n      mstore\n        /* \"#utility.yul\":6155:6157   */\n      0x0d\n        /* \"#utility.yul\":6135:6153   */\n      0x24\n      dup3\n      add\n        /* \"#utility.yul\":6128:6158   */\n      mstore\n      shl(0x9a, 0x1499599d5b990819985a5b1959)\n        /* \"#utility.yul\":6174:6192   */\n      0x44\n      dup3\n      add\n        /* \"#utility.yul\":6167:6210   */\n      mstore\n        /* \"#utility.yul\":6227:6245   */\n      0x64\n      add\n        /* \"SingAuction.sol\":4051:4084  require(success, \"Refund failed\") */\n      tag_74\n        /* \"#utility.yul\":5914:6251   */\n      jump\n        /* \"SingAuction.sol\":4051:4084  require(success, \"Refund failed\") */\n    tag_148:\n        /* \"SingAuction.sol\":4117:4128  participant */\n      dup4\n      sub(shl(0xa0, 0x01), 0x01)\n        /* \"SingAuction.sol\":4108:4137  Withdraw(participant, refund) */\n      and\n      0x884edad9ce6fa2440d8a54cc123490eb96d2768479d49ff9c7366125a9424364\n        /* \"SingAuction.sol\":4130:4136  refund */\n      dup4\n        /* \"SingAuction.sol\":4108:4137  Withdraw(participant, refund) */\n      mload(0x40)\n      tag_151\n      swap2\n        /* \"#utility.yul\":1931:1956   */\n      dup2\n      mstore\n        /* \"#utility.yul\":1919:1921   */\n      0x20\n        /* \"#utility.yul\":1904:1922   */\n      add\n      swap1\n        /* \"#utility.yul\":1785:1962   */\n      jump\n        /* \"SingAuction.sol\":4108:4137  Withdraw(participant, refund) */\n    tag_151:\n      mload(0x40)\n      dup1\n      swap2\n      sub\n      swap1\n      log2\n        /* \"SingAuction.sol\":3905:4153  {... */\n      pop\n        /* \"SingAuction.sol\":3889:4153  if (refund > 0) {... */\n    tag_143:\n        /* \"SingAuction.sol\":3615:4164  {... */\n      pop\n      pop\n      pop\n        /* \"SingAuction.sol\":3573:4164  for (uint256 i = 0; i < bids.length; i++) {... */\n    tag_136:\n        /* \"SingAuction.sol\":3610:3613  i++ */\n      0x01\n      add\n        /* \"SingAuction.sol\":3573:4164  for (uint256 i = 0; i < bids.length; i++) {... */\n      jump(tag_134)\n    tag_135:\n      pop\n        /* \"SingAuction.sol\":4261:4264  100 */\n      0x64\n        /* \"SingAuction.sol\":4233:4258  address(this).balance * 2 */\n      tag_152\n        /* \"SingAuction.sol\":4233:4254  address(this).balance */\n      selfbalance\n        /* \"SingAuction.sol\":4257:4258  2 */\n      0x02\n        /* \"SingAuction.sol\":4233:4258  address(this).balance * 2 */\n      tag_85\n      jump\t// in\n    tag_152:\n        /* \"SingAuction.sol\":4233:4264  address(this).balance * 2 / 100 */\n      tag_153\n      swap2\n      swap1\n      tag_87\n      jump\t// in\n    tag_153:\n        /* \"SingAuction.sol\":4220:4264  commission = address(this).balance * 2 / 100 */\n      swap1\n      pop\n        /* \"SingAuction.sol\":4279:4293  commission > 0 */\n      dup1\n      iszero\n        /* \"SingAuction.sol\":4275:4429  if (commission > 0) {... */\n      tag_154\n      jumpi\n        /* \"SingAuction.sol\":4334:4339  owner */\n      sload(0x04)\n        /* \"SingAuction.sol\":4326:4368  payable(owner).call{value: commission}(\"\") */\n      mload(0x40)\n        /* \"SingAuction.sol\":4311:4320  bool sent */\n      0x00\n      swap2\n      sub(shl(0xa0, 0x01), 0x01)\n        /* \"SingAuction.sol\":4334:4339  owner */\n      and\n      swap1\n        /* \"SingAuction.sol\":4353:4363  commission */\n      dup4\n      swap1\n        /* \"SingAuction.sol\":4311:4320  bool sent */\n      dup4\n        /* \"SingAuction.sol\":4326:4368  payable(owner).call{value: commission}(\"\") */\n      dup2\n        /* \"SingAuction.sol\":4311:4320  bool sent */\n      dup2\n        /* \"SingAuction.sol\":4326:4368  payable(owner).call{value: commission}(\"\") */\n      dup2\n        /* \"SingAuction.sol\":4353:4363  commission */\n      dup6\n        /* \"SingAuction.sol\":4334:4339  owner */\n      dup8\n        /* \"SingAuction.sol\":4326:4368  payable(owner).call{value: commission}(\"\") */\n      gas\n      call\n      swap3\n      pop\n      pop\n      pop\n      returndatasize\n      dup1\n      0x00\n      dup2\n      eq\n      tag_158\n      jumpi\n      mload(0x40)\n      swap2\n      pop\n      and(add(returndatasize, 0x3f), not(0x1f))\n      dup3\n      add\n      0x40\n      mstore\n      returndatasize\n      dup3\n      mstore\n      returndatasize\n      0x00\n      0x20\n      dup5\n      add\n      returndatacopy\n      jump(tag_157)\n    tag_158:\n      0x60\n      swap2\n      pop\n    tag_157:\n      pop\n        /* \"SingAuction.sol\":4310:4368  (bool sent, ) = payable(owner).call{value: commission}(\"\") */\n      pop\n      swap1\n      pop\n        /* \"SingAuction.sol\":4391:4395  sent */\n      dup1\n        /* \"SingAuction.sol\":4383:4417  require(sent, \"Commission failed\") */\n      tag_159\n      jumpi\n      mload(0x40)\n      shl(0xe5, 0x461bcd)\n      dup2\n      mstore\n        /* \"#utility.yul\":6458:6460   */\n      0x20\n        /* \"SingAuction.sol\":4383:4417  require(sent, \"Commission failed\") */\n      0x04\n      dup3\n      add\n        /* \"#utility.yul\":6440:6461   */\n      mstore\n        /* \"#utility.yul\":6497:6499   */\n      0x11\n        /* \"#utility.yul\":6477:6495   */\n      0x24\n      dup3\n      add\n        /* \"#utility.yul\":6470:6500   */\n      mstore\n      shl(0x7a, 0x10dbdb5b5a5cdcda5bdb8819985a5b1959)\n        /* \"#utility.yul\":6516:6534   */\n      0x44\n      dup3\n      add\n        /* \"#utility.yul\":6509:6556   */\n      mstore\n        /* \"#utility.yul\":6573:6591   */\n      0x64\n      add\n        /* \"SingAuction.sol\":4383:4417  require(sent, \"Commission failed\") */\n      tag_74\n        /* \"#utility.yul\":6256:6597   */\n      jump\n        /* \"SingAuction.sol\":4383:4417  require(sent, \"Commission failed\") */\n    tag_159:\n        /* \"SingAuction.sol\":4295:4429  {... */\n      pop\n        /* \"SingAuction.sol\":4275:4429  if (commission > 0) {... */\n    tag_154:\n        /* \"SingAuction.sol\":4441:4450  finalized */\n      0x04\n        /* \"SingAuction.sol\":4441:4457  finalized = true */\n      dup1\n      sload\n      not(shl(0xa0, 0xff))\n      and\n      shl(0xa0, 0x01)\n      or\n      swap1\n      sstore\n      0x00\n        /* \"SingAuction.sol\":4499:4510  bids.length */\n      dup1\n      sload\n        /* \"SingAuction.sol\":4473:4523  AuctionEnded(winner, bids[bids.length - 1].amount) */\n      0xdaec4582d5d9595688c8c98545fdd1c696d41c6aeaeb636737e84ed2f5c00eda\n      swap2\n        /* \"SingAuction.sol\":4486:4492  winner */\n      dup5\n      swap2\n        /* \"SingAuction.sol\":4499:4514  bids.length - 1 */\n      tag_162\n      swap1\n        /* \"SingAuction.sol\":4453:4457  true */\n      0x01\n      swap1\n        /* \"SingAuction.sol\":4499:4514  bids.length - 1 */\n      tag_79\n      jump\t// in\n    tag_162:\n        /* \"SingAuction.sol\":4494:4515  bids[bids.length - 1] */\n      dup2\n      sload\n      dup2\n      lt\n      tag_164\n      jumpi\n      tag_164\n      tag_82\n      jump\t// in\n    tag_164:\n      0x00\n      swap2\n      dup3\n      mstore\n      0x20\n      swap2\n      dup3\n      swap1\n      keccak256\n        /* \"SingAuction.sol\":4494:4522  bids[bids.length - 1].amount */\n      0x01\n        /* \"SingAuction.sol\":4494:4515  bids[bids.length - 1] */\n      0x02\n      swap1\n      swap3\n      mul\n      add\n        /* \"SingAuction.sol\":4494:4522  bids[bids.length - 1].amount */\n      add\n      sload\n        /* \"SingAuction.sol\":4473:4523  AuctionEnded(winner, bids[bids.length - 1].amount) */\n      0x40\n      dup1\n      mload\n      sub(shl(0xa0, 0x01), 0x01)\n        /* \"#utility.yul\":1698:1730   */\n      swap1\n      swap5\n      and\n        /* \"#utility.yul\":1680:1731   */\n      dup5\n      mstore\n        /* \"#utility.yul\":1747:1765   */\n      swap2\n      dup4\n      add\n        /* \"#utility.yul\":1740:1774   */\n      mstore\n        /* \"#utility.yul\":1653:1671   */\n      add\n        /* \"SingAuction.sol\":4473:4523  AuctionEnded(winner, bids[bids.length - 1].amount) */\n    tag_166:\n      mload(0x40)\n      dup1\n      swap2\n      sub\n      swap1\n      log1\n        /* \"SingAuction.sol\":3424:4531  {... */\n      pop\n      pop\n        /* \"SingAuction.sol\":3363:4531  function withdrawDeposits() external whenNotActive onlyOwner {... */\n      jump\t// out\n        /* \"SingAuction.sol\":2936:3097  function showWinner() external view returns (address) {... */\n    tag_59:\n        /* \"SingAuction.sol\":2981:2988  address */\n      0x00\n        /* \"SingAuction.sol\":3009:3020  bids.length */\n      dup1\n      sload\n        /* \"SingAuction.sol\":3001:3043  require(bids.length > 0, \"No bids placed\") */\n      tag_168\n      jumpi\n      mload(0x40)\n      shl(0xe5, 0x461bcd)\n      dup2\n      mstore\n        /* \"#utility.yul\":6804:6806   */\n      0x20\n        /* \"SingAuction.sol\":3001:3043  require(bids.length > 0, \"No bids placed\") */\n      0x04\n      dup3\n      add\n        /* \"#utility.yul\":6786:6807   */\n      mstore\n        /* \"#utility.yul\":6843:6845   */\n      0x0e\n        /* \"#utility.yul\":6823:6841   */\n      0x24\n      dup3\n      add\n        /* \"#utility.yul\":6816:6846   */\n      mstore\n      shl(0x92, 0x139bc8189a591cc81c1b1858d959)\n        /* \"#utility.yul\":6862:6880   */\n      0x44\n      dup3\n      add\n        /* \"#utility.yul\":6855:6899   */\n      mstore\n        /* \"#utility.yul\":6916:6934   */\n      0x64\n      add\n        /* \"SingAuction.sol\":3001:3043  require(bids.length > 0, \"No bids placed\") */\n      tag_74\n        /* \"#utility.yul\":6602:6940   */\n      jump\n        /* \"SingAuction.sol\":3001:3043  require(bids.length > 0, \"No bids placed\") */\n    tag_168:\n        /* \"SingAuction.sol\":3061:3065  bids */\n      0x00\n        /* \"SingAuction.sol\":3066:3077  bids.length */\n      dup1\n      sload\n        /* \"SingAuction.sol\":3066:3081  bids.length - 1 */\n      tag_171\n      swap1\n        /* \"SingAuction.sol\":3080:3081  1 */\n      0x01\n      swap1\n        /* \"SingAuction.sol\":3066:3081  bids.length - 1 */\n      tag_79\n      jump\t// in\n    tag_171:\n        /* \"SingAuction.sol\":3061:3082  bids[bids.length - 1] */\n      dup2\n      sload\n      dup2\n      lt\n      tag_173\n      jumpi\n      tag_173\n      tag_82\n      jump\t// in\n    tag_173:\n      0x00\n      swap2\n      dup3\n      mstore\n      0x20\n      swap1\n      swap2\n      keccak256\n      0x02\n      swap1\n      swap2\n      mul\n      add\n        /* \"SingAuction.sol\":3061:3089  bids[bids.length - 1].bidder */\n      sload\n      sub(shl(0xa0, 0x01), 0x01)\n      and\n      swap2\n        /* \"SingAuction.sol\":2936:3097  function showWinner() external view returns (address) {... */\n      swap1\n      pop\n      jump\t// out\n        /* \"SingAuction.sol\":5115:5485  function emergencyWithdraw() external onlyOwner whenNotActive {... */\n    tag_67:\n        /* \"SingAuction.sol\":2080:2085  owner */\n      and(sub(shl(0xa0, 0x01), 0x01), sload(0x04))\n        /* \"SingAuction.sol\":2066:2076  msg.sender */\n      caller\n        /* \"SingAuction.sol\":2066:2085  msg.sender == owner */\n      eq\n        /* \"SingAuction.sol\":2058:2104  require(msg.sender == owner, \"Not authorized\") */\n      tag_176\n      jumpi\n      mload(0x40)\n      shl(0xe5, 0x461bcd)\n      dup2\n      mstore\n        /* \"#utility.yul\":5427:5429   */\n      0x20\n        /* \"SingAuction.sol\":2058:2104  require(msg.sender == owner, \"Not authorized\") */\n      0x04\n      dup3\n      add\n        /* \"#utility.yul\":5409:5430   */\n      mstore\n        /* \"#utility.yul\":5466:5468   */\n      0x0e\n        /* \"#utility.yul\":5446:5464   */\n      0x24\n      dup3\n      add\n        /* \"#utility.yul\":5439:5469   */\n      mstore\n      shl(0x92, 0x139bdd08185d5d1a1bdc9a5e9959)\n        /* \"#utility.yul\":5485:5503   */\n      0x44\n      dup3\n      add\n        /* \"#utility.yul\":5478:5522   */\n      mstore\n        /* \"#utility.yul\":5539:5557   */\n      0x64\n      add\n        /* \"SingAuction.sol\":2058:2104  require(msg.sender == owner, \"Not authorized\") */\n      tag_74\n        /* \"#utility.yul\":5225:5563   */\n      jump\n        /* \"SingAuction.sol\":2058:2104  require(msg.sender == owner, \"Not authorized\") */\n    tag_176:\n        /* \"SingAuction.sol\":1967:1974  endDate */\n      sload(0x02)\n        /* \"SingAuction.sol\":1948:1963  block.timestamp */\n      timestamp\n        /* \"SingAuction.sol\":1948:1974  block.timestamp >= endDate */\n      lt\n      iszero\n        /* \"SingAuction.sol\":1940:1998  require(block.timestamp >= endDate, \"Auction in progress\") */\n      tag_179\n      jumpi\n      mload(0x40)\n      shl(0xe5, 0x461bcd)\n      dup2\n      mstore\n        /* \"#utility.yul\":5079:5081   */\n      0x20\n        /* \"SingAuction.sol\":1940:1998  require(block.timestamp >= endDate, \"Auction in progress\") */\n      0x04\n      dup3\n      add\n        /* \"#utility.yul\":5061:5082   */\n      mstore\n        /* \"#utility.yul\":5118:5120   */\n      0x13\n        /* \"#utility.yul\":5098:5116   */\n      0x24\n      dup3\n      add\n        /* \"#utility.yul\":5091:5121   */\n      mstore\n      shl(0x68, 0x41756374696f6e20696e2070726f6772657373)\n        /* \"#utility.yul\":5137:5155   */\n      0x44\n      dup3\n      add\n        /* \"#utility.yul\":5130:5179   */\n      mstore\n        /* \"#utility.yul\":5196:5214   */\n      0x64\n      add\n        /* \"SingAuction.sol\":1940:1998  require(block.timestamp >= endDate, \"Auction in progress\") */\n      tag_74\n        /* \"#utility.yul\":4877:5220   */\n      jump\n        /* \"SingAuction.sol\":1940:1998  require(block.timestamp >= endDate, \"Auction in progress\") */\n    tag_179:\n        /* \"SingAuction.sol\":5196:5205  finalized */\n      sload(0x04)\n      shl(0xa0, 0x01)\n      swap1\n      div\n      0xff\n      and\n        /* \"SingAuction.sol\":5188:5229  require(finalized, \"Must finalize first\") */\n      tag_182\n      jumpi\n      mload(0x40)\n      shl(0xe5, 0x461bcd)\n      dup2\n      mstore\n        /* \"#utility.yul\":7147:7149   */\n      0x20\n        /* \"SingAuction.sol\":5188:5229  require(finalized, \"Must finalize first\") */\n      0x04\n      dup3\n      add\n        /* \"#utility.yul\":7129:7150   */\n      mstore\n        /* \"#utility.yul\":7186:7188   */\n      0x13\n        /* \"#utility.yul\":7166:7184   */\n      0x24\n      dup3\n      add\n        /* \"#utility.yul\":7159:7189   */\n      mstore\n      shl(0x6a, 0x135d5cdd08199a5b985b1a5e9948199a5c9cdd)\n        /* \"#utility.yul\":7205:7223   */\n      0x44\n      dup3\n      add\n        /* \"#utility.yul\":7198:7247   */\n      mstore\n        /* \"#utility.yul\":7264:7282   */\n      0x64\n      add\n        /* \"SingAuction.sol\":5188:5229  require(finalized, \"Must finalize first\") */\n      tag_74\n        /* \"#utility.yul\":6945:7288   */\n      jump\n        /* \"SingAuction.sol\":5188:5229  require(finalized, \"Must finalize first\") */\n    tag_182:\n        /* \"SingAuction.sol\":5256:5277  address(this).balance */\n      selfbalance\n        /* \"SingAuction.sol\":5296:5305  value > 0 */\n      dup1\n        /* \"SingAuction.sol\":5288:5318  require(value > 0, \"No funds\") */\n      tag_185\n      jumpi\n      mload(0x40)\n      shl(0xe5, 0x461bcd)\n      dup2\n      mstore\n        /* \"#utility.yul\":7495:7497   */\n      0x20\n        /* \"SingAuction.sol\":5288:5318  require(value > 0, \"No funds\") */\n      0x04\n      dup3\n      add\n        /* \"#utility.yul\":7477:7498   */\n      mstore\n        /* \"#utility.yul\":7534:7535   */\n      0x08\n        /* \"#utility.yul\":7514:7532   */\n      0x24\n      dup3\n      add\n        /* \"#utility.yul\":7507:7536   */\n      mstore\n      shl(0xc0, 0x4e6f2066756e6473)\n        /* \"#utility.yul\":7552:7570   */\n      0x44\n      dup3\n      add\n        /* \"#utility.yul\":7545:7583   */\n      mstore\n        /* \"#utility.yul\":7600:7618   */\n      0x64\n      add\n        /* \"SingAuction.sol\":5288:5318  require(value > 0, \"No funds\") */\n      tag_74\n        /* \"#utility.yul\":7293:7624   */\n      jump\n        /* \"SingAuction.sol\":5288:5318  require(value > 0, \"No funds\") */\n    tag_185:\n        /* \"SingAuction.sol\":5353:5358  owner */\n      sload(0x04)\n        /* \"SingAuction.sol\":5345:5382  payable(owner).call{value: value}(\"\") */\n      mload(0x40)\n        /* \"SingAuction.sol\":5330:5339  bool sent */\n      0x00\n      swap2\n      sub(shl(0xa0, 0x01), 0x01)\n        /* \"SingAuction.sol\":5353:5358  owner */\n      and\n      swap1\n        /* \"SingAuction.sol\":5372:5377  value */\n      dup4\n      swap1\n        /* \"SingAuction.sol\":5330:5339  bool sent */\n      dup4\n        /* \"SingAuction.sol\":5345:5382  payable(owner).call{value: value}(\"\") */\n      dup2\n        /* \"SingAuction.sol\":5330:5339  bool sent */\n      dup2\n        /* \"SingAuction.sol\":5345:5382  payable(owner).call{value: value}(\"\") */\n      dup2\n        /* \"SingAuction.sol\":5372:5377  value */\n      dup6\n        /* \"SingAuction.sol\":5353:5358  owner */\n      dup8\n        /* \"SingAuction.sol\":5345:5382  payable(owner).call{value: value}(\"\") */\n      gas\n      call\n      swap3\n      pop\n      pop\n      pop\n      returndatasize\n      dup1\n      0x00\n      dup2\n      eq\n      tag_191\n      jumpi\n      mload(0x40)\n      swap2\n      pop\n      and(add(returndatasize, 0x3f), not(0x1f))\n      dup3\n      add\n      0x40\n      mstore\n      returndatasize\n      dup3\n      mstore\n      returndatasize\n      0x00\n      0x20\n      dup5\n      add\n      returndatacopy\n      jump(tag_190)\n    tag_191:\n      0x60\n      swap2\n      pop\n    tag_190:\n      pop\n        /* \"SingAuction.sol\":5329:5382  (bool sent, ) = payable(owner).call{value: value}(\"\") */\n      pop\n      swap1\n      pop\n        /* \"SingAuction.sol\":5401:5405  sent */\n      dup1\n        /* \"SingAuction.sol\":5393:5437  require(sent, \"Emergency withdrawal failed\") */\n      tag_192\n      jumpi\n      mload(0x40)\n      shl(0xe5, 0x461bcd)\n      dup2\n      mstore\n        /* \"#utility.yul\":7831:7833   */\n      0x20\n        /* \"SingAuction.sol\":5393:5437  require(sent, \"Emergency withdrawal failed\") */\n      0x04\n      dup3\n      add\n        /* \"#utility.yul\":7813:7834   */\n      mstore\n        /* \"#utility.yul\":7870:7872   */\n      0x1b\n        /* \"#utility.yul\":7850:7868   */\n      0x24\n      dup3\n      add\n        /* \"#utility.yul\":7843:7873   */\n      mstore\n        /* \"#utility.yul\":7909:7938   */\n      0x456d657267656e6379207769746864726177616c206661696c65640000000000\n        /* \"#utility.yul\":7889:7907   */\n      0x44\n      dup3\n      add\n        /* \"#utility.yul\":7882:7939   */\n      mstore\n        /* \"#utility.yul\":7956:7974   */\n      0x64\n      add\n        /* \"SingAuction.sol\":5393:5437  require(sent, \"Emergency withdrawal failed\") */\n      tag_74\n        /* \"#utility.yul\":7629:7980   */\n      jump\n        /* \"SingAuction.sol\":5393:5437  require(sent, \"Emergency withdrawal failed\") */\n    tag_192:\n        /* \"SingAuction.sol\":5453:5477  EmergencyWithdraw(value) */\n      mload(0x40)\n        /* \"#utility.yul\":1931:1956   */\n      dup3\n      dup2\n      mstore\n        /* \"SingAuction.sol\":5453:5477  EmergencyWithdraw(value) */\n      0x99d7f8b71cfb9126984f7a5eed3a40e64a8959e9b0e442221546fb04ec6a489c\n      swap1\n        /* \"#utility.yul\":1919:1921   */\n      0x20\n        /* \"#utility.yul\":1904:1922   */\n      add\n        /* \"SingAuction.sol\":5453:5477  EmergencyWithdraw(value) */\n      tag_166\n        /* \"#utility.yul\":1785:1962   */\n      jump\n        /* \"#utility.yul\":14:772   */\n    tag_19:\n        /* \"#utility.yul\":240:242   */\n      0x20\n        /* \"#utility.yul\":252:273   */\n      dup1\n      dup3\n      mstore\n        /* \"#utility.yul\":322:335   */\n      dup3\n      mload\n        /* \"#utility.yul\":225:243   */\n      dup3\n      dup3\n      add\n        /* \"#utility.yul\":344:366   */\n      dup2\n      swap1\n      mstore\n        /* \"#utility.yul\":192:196   */\n      0x00\n      swap2\n        /* \"#utility.yul\":423:438   */\n      dup5\n      add\n      swap1\n        /* \"#utility.yul\":397:399   */\n      0x40\n        /* \"#utility.yul\":382:400   */\n      dup5\n      add\n      swap1\n        /* \"#utility.yul\":192:196   */\n      dup4\n        /* \"#utility.yul\":466:746   */\n    tag_199:\n        /* \"#utility.yul\":480:486   */\n      dup2\n        /* \"#utility.yul\":477:478   */\n      dup2\n        /* \"#utility.yul\":474:487   */\n      lt\n        /* \"#utility.yul\":466:746   */\n      iszero\n      tag_201\n      jumpi\n        /* \"#utility.yul\":539:552   */\n      dup4\n      mload\n        /* \"#utility.yul\":581:590   */\n      dup1\n      mload\n      sub(shl(0xa0, 0x01), 0x01)\n        /* \"#utility.yul\":577:612   */\n      and\n        /* \"#utility.yul\":565:613   */\n      dup5\n      mstore\n        /* \"#utility.yul\":661:663   */\n      0x20\n        /* \"#utility.yul\":653:664   */\n      swap1\n      dup2\n      add\n        /* \"#utility.yul\":647:665   */\n      mload\n        /* \"#utility.yul\":633:645   */\n      dup2\n      dup6\n      add\n        /* \"#utility.yul\":626:666   */\n      mstore\n        /* \"#utility.yul\":721:736   */\n      swap1\n      swap4\n      add\n      swap3\n        /* \"#utility.yul\":695:697   */\n      0x40\n        /* \"#utility.yul\":686:698   */\n      swap1\n      swap3\n      add\n      swap2\n        /* \"#utility.yul\":609:610   */\n      0x01\n        /* \"#utility.yul\":495:504   */\n      add\n        /* \"#utility.yul\":466:746   */\n      jump(tag_199)\n    tag_201:\n      pop\n        /* \"#utility.yul\":763:766   */\n      swap1\n      swap6\n        /* \"#utility.yul\":14:772   */\n      swap5\n      pop\n      pop\n      pop\n      pop\n      pop\n      jump\t// out\n        /* \"#utility.yul\":777:1063   */\n    tag_28:\n        /* \"#utility.yul\":836:842   */\n      0x00\n        /* \"#utility.yul\":889:891   */\n      0x20\n        /* \"#utility.yul\":877:886   */\n      dup3\n        /* \"#utility.yul\":868:875   */\n      dup5\n        /* \"#utility.yul\":864:887   */\n      sub\n        /* \"#utility.yul\":860:892   */\n      slt\n        /* \"#utility.yul\":857:909   */\n      iszero\n      tag_203\n      jumpi\n        /* \"#utility.yul\":905:906   */\n      0x00\n        /* \"#utility.yul\":902:903   */\n      0x00\n        /* \"#utility.yul\":895:907   */\n      revert\n        /* \"#utility.yul\":857:909   */\n    tag_203:\n        /* \"#utility.yul\":931:954   */\n      dup2\n      calldataload\n      sub(shl(0xa0, 0x01), 0x01)\n        /* \"#utility.yul\":983:1014   */\n      dup2\n      and\n        /* \"#utility.yul\":973:1015   */\n      dup2\n      eq\n        /* \"#utility.yul\":963:1033   */\n      tag_204\n      jumpi\n        /* \"#utility.yul\":1029:1030   */\n      0x00\n        /* \"#utility.yul\":1026:1027   */\n      0x00\n        /* \"#utility.yul\":1019:1031   */\n      revert\n        /* \"#utility.yul\":963:1033   */\n    tag_204:\n        /* \"#utility.yul\":1052:1057   */\n      swap4\n        /* \"#utility.yul\":777:1063   */\n      swap3\n      pop\n      pop\n      pop\n      jump\t// out\n        /* \"#utility.yul\":1321:1501   */\n    tag_35:\n        /* \"#utility.yul\":1380:1386   */\n      0x00\n        /* \"#utility.yul\":1433:1435   */\n      0x20\n        /* \"#utility.yul\":1421:1430   */\n      dup3\n        /* \"#utility.yul\":1412:1419   */\n      dup5\n        /* \"#utility.yul\":1408:1431   */\n      sub\n        /* \"#utility.yul\":1404:1436   */\n      slt\n        /* \"#utility.yul\":1401:1453   */\n      iszero\n      tag_207\n      jumpi\n        /* \"#utility.yul\":1449:1450   */\n      0x00\n        /* \"#utility.yul\":1446:1447   */\n      0x00\n        /* \"#utility.yul\":1439:1451   */\n      revert\n        /* \"#utility.yul\":1401:1453   */\n    tag_207:\n      pop\n        /* \"#utility.yul\":1472:1495   */\n      calldataload\n      swap2\n        /* \"#utility.yul\":1321:1501   */\n      swap1\n      pop\n      jump\t// out\n        /* \"#utility.yul\":2709:2836   */\n    tag_196:\n        /* \"#utility.yul\":2770:2780   */\n      0x4e487b71\n        /* \"#utility.yul\":2765:2768   */\n      0xe0\n        /* \"#utility.yul\":2761:2781   */\n      shl\n        /* \"#utility.yul\":2758:2759   */\n      0x00\n        /* \"#utility.yul\":2751:2782   */\n      mstore\n        /* \"#utility.yul\":2801:2805   */\n      0x11\n        /* \"#utility.yul\":2798:2799   */\n      0x04\n        /* \"#utility.yul\":2791:2806   */\n      mstore\n        /* \"#utility.yul\":2825:2829   */\n      0x24\n        /* \"#utility.yul\":2822:2823   */\n      0x00\n        /* \"#utility.yul\":2815:2830   */\n      revert\n        /* \"#utility.yul\":2841:2969   */\n    tag_79:\n        /* \"#utility.yul\":2908:2917   */\n      dup2\n      dup2\n      sub\n        /* \"#utility.yul\":2929:2940   */\n      dup2\n      dup2\n      gt\n        /* \"#utility.yul\":2926:2963   */\n      iszero\n      tag_216\n      jumpi\n        /* \"#utility.yul\":2943:2961   */\n      tag_216\n      tag_196\n      jump\t// in\n    tag_216:\n        /* \"#utility.yul\":2841:2969   */\n      swap3\n      swap2\n      pop\n      pop\n      jump\t// out\n        /* \"#utility.yul\":2974:3101   */\n    tag_82:\n        /* \"#utility.yul\":3035:3045   */\n      0x4e487b71\n        /* \"#utility.yul\":3030:3033   */\n      0xe0\n        /* \"#utility.yul\":3026:3046   */\n      shl\n        /* \"#utility.yul\":3023:3024   */\n      0x00\n        /* \"#utility.yul\":3016:3047   */\n      mstore\n        /* \"#utility.yul\":3066:3070   */\n      0x32\n        /* \"#utility.yul\":3063:3064   */\n      0x04\n        /* \"#utility.yul\":3056:3071   */\n      mstore\n        /* \"#utility.yul\":3090:3094   */\n      0x24\n        /* \"#utility.yul\":3087:3088   */\n      0x00\n        /* \"#utility.yul\":3080:3095   */\n      revert\n        /* \"#utility.yul\":3106:3274   */\n    tag_85:\n        /* \"#utility.yul\":3179:3188   */\n      dup1\n      dup3\n      mul\n        /* \"#utility.yul\":3210:3219   */\n      dup2\n      iszero\n        /* \"#utility.yul\":3227:3242   */\n      dup3\n      dup3\n      div\n        /* \"#utility.yul\":3221:3243   */\n      dup5\n      eq\n        /* \"#utility.yul\":3207:3244   */\n      or\n        /* \"#utility.yul\":3197:3268   */\n      tag_216\n      jumpi\n        /* \"#utility.yul\":3248:3266   */\n      tag_216\n      tag_196\n      jump\t// in\n        /* \"#utility.yul\":3279:3496   */\n    tag_87:\n        /* \"#utility.yul\":3319:3320   */\n      0x00\n        /* \"#utility.yul\":3345:3346   */\n      dup3\n        /* \"#utility.yul\":3335:3467   */\n      tag_222\n      jumpi\n        /* \"#utility.yul\":3389:3399   */\n      0x4e487b71\n        /* \"#utility.yul\":3384:3387   */\n      0xe0\n        /* \"#utility.yul\":3380:3400   */\n      shl\n        /* \"#utility.yul\":3377:3378   */\n      0x00\n        /* \"#utility.yul\":3370:3401   */\n      mstore\n        /* \"#utility.yul\":3424:3428   */\n      0x12\n        /* \"#utility.yul\":3421:3422   */\n      0x04\n        /* \"#utility.yul\":3414:3429   */\n      mstore\n        /* \"#utility.yul\":3452:3456   */\n      0x24\n        /* \"#utility.yul\":3449:3450   */\n      0x00\n        /* \"#utility.yul\":3442:3457   */\n      revert\n        /* \"#utility.yul\":3335:3467   */\n    tag_222:\n      pop\n        /* \"#utility.yul\":3481:3490   */\n      div\n      swap1\n        /* \"#utility.yul\":3279:3496   */\n      jump\t// out\n        /* \"#utility.yul\":3841:3966   */\n    tag_93:\n        /* \"#utility.yul\":3906:3915   */\n      dup1\n      dup3\n      add\n        /* \"#utility.yul\":3927:3937   */\n      dup1\n      dup3\n      gt\n        /* \"#utility.yul\":3924:3960   */\n      iszero\n      tag_216\n      jumpi\n        /* \"#utility.yul\":3940:3958   */\n      tag_216\n      tag_196\n      jump\t// in\n\n    auxdata: 0xa264697066735822122082a3fc774de36473ee86222e0e39cc9d61ff083ef55c670db3dc39f5f176cc0564736f6c634300081e0033\n}\n",
				"bytecode": {
					"linkReferences": {},
					"object": "608060405234801561000f575f5ffd5b50604051610f52380380610f5283398101604081905261002e916100f4565b5f811161008d5760405162461bcd60e51b8152602060048201526024808201527f496e697469616c2076616c7565206d75737420626520677265617465722074686044820152630616e20360e41b606482015260840160405180910390fd5b6100978242610116565b60028190556003829055600480546001600160a01b031916331790556040517f1bb96dff6ab5005aff98cdc0cf176bb7d8e0423cb48e02217d35b042cec81e9f916100e59190815260200190565b60405180910390a1505061013b565b5f5f60408385031215610105575f5ffd5b505080516020909101519092909150565b8082018082111561013557634e487b7160e01b5f52601160045260245ffd5b92915050565b610e0a806101485f395ff3fe6080604052600436106100a5575f3560e01c80637cf2ed22116100625780637cf2ed22146101995780638da5cb5b146101ad578063b3f05b97146101e4578063b7e0326414610214578063c24a0f8b14610228578063db2e21bc1461023d575f5ffd5b806314d2687c146100a95780631998aeef146100d35780631ce2bcf5146100dd5780633260f218146100f15780634423c5f11461013857806356377d1614610176575b5f5ffd5b3480156100b4575f5ffd5b506100bd610251565b6040516100ca9190610caf565b60405180910390f35b6100db6102c3565b005b3480156100e8575f5ffd5b506100db6104c2565b3480156100fc575f5ffd5b5061012361010b366004610d06565b600160208190525f9182526040909120805491015482565b604080519283526020830191909152016100ca565b348015610143575f5ffd5b50610157610152366004610d33565b61063c565b604080516001600160a01b0390931683526020830191909152016100ca565b348015610181575f5ffd5b5061018b60035481565b6040519081526020016100ca565b3480156101a4575f5ffd5b506100db610671565b3480156101b8575f5ffd5b506004546101cc906001600160a01b031681565b6040516001600160a01b0390911681526020016100ca565b3480156101ef575f5ffd5b5060045461020490600160a01b900460ff1681565b60405190151581526020016100ca565b34801561021f575f5ffd5b506101cc610a47565b348015610233575f5ffd5b5061018b60025481565b348015610248575f5ffd5b506100db610ac4565b60605f805480602002602001604051908101604052809291908181526020015f905b828210156102ba575f848152602090819020604080518082019091526002850290910180546001600160a01b03168252600190810154828401529083529092019101610273565b50505050905090565b60025442106103095760405162461bcd60e51b815260206004820152600d60248201526c105d58dd1a5bdb88195b991959609a1b60448201526064015b60405180910390fd5b5f805490811561035c5760645f610321600185610d5e565b8154811061033157610331610d77565b905f5260205f20906002020160010154606961034d9190610d8b565b6103579190610da2565b610360565b6003545b9050803410156103a05760405162461bcd60e51b815260206004820152600b60248201526a42696420746f6f206c6f7760a81b6044820152606401610300565b335f90815260016020819052604082203480825591018054919290916103c7908490610dc1565b90915550506040805180820190915233815234602082019081525f805460018101825590805291517f290decd9548b62a8d60345a988386fc84ba6bc95484008f6362f93160ef3e563600290930292830180546001600160a01b0319166001600160a01b03909216919091179055517f290decd9548b62a8d60345a988386fc84ba6bc95484008f6362f93160ef3e5649091015561046742610258610dc1565b600254116104885761025860025f8282546104829190610dc1565b90915550505b60405134815233907fdd0b6c6a77960e2066c96171b4d7ac9e8b4c184011f38544afa36a5bb63ec59f906020015b60405180910390a25050565b60025442106105035760405162461bcd60e51b815260206004820152600d60248201526c105d58dd1a5bdb88195b991959609a1b6044820152606401610300565b335f908152600160208190526040822080549101546105229190610d5e565b90505f811161056b5760405162461bcd60e51b81526020600482015260156024820152744e6f2065786365737320746f20776974686472617760581b6044820152606401610300565b335f81815260016020819052604080832080549201919091555190919083908381818185875af1925050503d805f81146105c0576040519150601f19603f3d011682016040523d82523d5f602084013e6105c5565b606091505b505090508061060a5760405162461bcd60e51b815260206004820152601160248201527015da5d1a191c985dd85b0819985a5b1959607a1b6044820152606401610300565b60405182815233907f884edad9ce6fa2440d8a54cc123490eb96d2768479d49ff9c7366125a9424364906020016104b6565b5f818154811061064a575f80fd5b5f918252602090912060029091020180546001909101546001600160a01b03909116915082565b6002544210156106b95760405162461bcd60e51b815260206004820152601360248201527241756374696f6e20696e2070726f677265737360681b6044820152606401610300565b6004546001600160a01b031633146107045760405162461bcd60e51b815260206004820152600e60248201526d139bdd08185d5d1a1bdc9a5e995960921b6044820152606401610300565b600454600160a01b900460ff16156107525760405162461bcd60e51b8152602060048201526011602482015270105b1c9958591e48199a5b985b1a5e9959607a1b6044820152606401610300565b5f8054819061076390600190610d5e565b8154811061077357610773610d77565b5f91825260208220600290910201546001600160a01b03169150805b5f54811015610904575f5f82815481106107ab576107ab610d77565b5f9182526020909120600290910201546001600160a01b039081169150841681036107d657506108fc565b6001600160a01b0381165f908152600160208190526040822001549060646107ff836062610d8b565b6108099190610da2565b905080156108f8576001600160a01b0383165f8181526001602081905260408083209091018290555190919083908381818185875af1925050503d805f811461086d576040519150601f19603f3d011682016040523d82523d5f602084013e610872565b606091505b50509050806108b35760405162461bcd60e51b815260206004820152600d60248201526c1499599d5b990819985a5b1959609a1b6044820152606401610300565b836001600160a01b03167f884edad9ce6fa2440d8a54cc123490eb96d2768479d49ff9c7366125a9424364836040516108ee91815260200190565b60405180910390a2505b5050505b60010161078f565b506064610912476002610d8b565b61091c9190610da2565b905080156109ba576004546040515f916001600160a01b03169083908381818185875af1925050503d805f811461096e576040519150601f19603f3d011682016040523d82523d5f602084013e610973565b606091505b50509050806109b85760405162461bcd60e51b815260206004820152601160248201527010dbdb5b5a5cdcda5bdb8819985a5b1959607a1b6044820152606401610300565b505b6004805460ff60a01b1916600160a01b1790555f80547fdaec4582d5d9595688c8c98545fdd1c696d41c6aeaeb636737e84ed2f5c00eda918491610a0090600190610d5e565b81548110610a1057610a10610d77565b5f91825260209182902060016002909202010154604080516001600160a01b03909416845291830152015b60405180910390a15050565b5f8054610a875760405162461bcd60e51b815260206004820152600e60248201526d139bc8189a591cc81c1b1858d95960921b6044820152606401610300565b5f8054610a9690600190610d5e565b81548110610aa657610aa6610d77565b5f9182526020909120600290910201546001600160a01b0316919050565b6004546001600160a01b03163314610b0f5760405162461bcd60e51b815260206004820152600e60248201526d139bdd08185d5d1a1bdc9a5e995960921b6044820152606401610300565b600254421015610b575760405162461bcd60e51b815260206004820152601360248201527241756374696f6e20696e2070726f677265737360681b6044820152606401610300565b600454600160a01b900460ff16610ba65760405162461bcd60e51b8152602060048201526013602482015272135d5cdd08199a5b985b1a5e9948199a5c9cdd606a1b6044820152606401610300565b4780610bdf5760405162461bcd60e51b81526020600482015260086024820152674e6f2066756e647360c01b6044820152606401610300565b6004546040515f916001600160a01b03169083908381818185875af1925050503d805f8114610c29576040519150601f19603f3d011682016040523d82523d5f602084013e610c2e565b606091505b5050905080610c7f5760405162461bcd60e51b815260206004820152601b60248201527f456d657267656e6379207769746864726177616c206661696c656400000000006044820152606401610300565b6040518281527f99d7f8b71cfb9126984f7a5eed3a40e64a8959e9b0e442221546fb04ec6a489c90602001610a3b565b602080825282518282018190525f918401906040840190835b81811015610cfb57835180516001600160a01b031684526020908101518185015290930192604090920191600101610cc8565b509095945050505050565b5f60208284031215610d16575f5ffd5b81356001600160a01b0381168114610d2c575f5ffd5b9392505050565b5f60208284031215610d43575f5ffd5b5035919050565b634e487b7160e01b5f52601160045260245ffd5b81810381811115610d7157610d71610d4a565b92915050565b634e487b7160e01b5f52603260045260245ffd5b8082028115828204841417610d7157610d71610d4a565b5f82610dbc57634e487b7160e01b5f52601260045260245ffd5b500490565b80820180821115610d7157610d71610d4a56fea264697066735822122082a3fc774de36473ee86222e0e39cc9d61ff083ef55c670db3dc39f5f176cc0564736f6c634300081e0033",
					"opcodes": "PUSH1 0x80 PUSH1 0x40 MSTORE CALLVALUE DUP1 ISZERO PUSH2 0xF JUMPI PUSH0 PUSH0 REVERT JUMPDEST POP PUSH1 0x40 MLOAD PUSH2 0xF52 CODESIZE SUB DUP1 PUSH2 0xF52 DUP4 CODECOPY DUP2 ADD PUSH1 0x40 DUP2 SWAP1 MSTORE PUSH2 0x2E SWAP2 PUSH2 0xF4 JUMP JUMPDEST PUSH0 DUP2 GT PUSH2 0x8D JUMPI PUSH1 0x40 MLOAD PUSH3 0x461BCD PUSH1 0xE5 SHL DUP2 MSTORE PUSH1 0x20 PUSH1 0x4 DUP3 ADD MSTORE PUSH1 0x24 DUP1 DUP3 ADD MSTORE PUSH32 0x496E697469616C2076616C7565206D7573742062652067726561746572207468 PUSH1 0x44 DUP3 ADD MSTORE PUSH4 0x616E203 PUSH1 0xE4 SHL PUSH1 0x64 DUP3 ADD MSTORE PUSH1 0x84 ADD PUSH1 0x40 MLOAD DUP1 SWAP2 SUB SWAP1 REVERT JUMPDEST PUSH2 0x97 DUP3 TIMESTAMP PUSH2 0x116 JUMP JUMPDEST PUSH1 0x2 DUP2 SWAP1 SSTORE PUSH1 0x3 DUP3 SWAP1 SSTORE PUSH1 0x4 DUP1 SLOAD PUSH1 0x1 PUSH1 0x1 PUSH1 0xA0 SHL SUB NOT AND CALLER OR SWAP1 SSTORE PUSH1 0x40 MLOAD PUSH32 0x1BB96DFF6AB5005AFF98CDC0CF176BB7D8E0423CB48E02217D35B042CEC81E9F SWAP2 PUSH2 0xE5 SWAP2 SWAP1 DUP2 MSTORE PUSH1 0x20 ADD SWAP1 JUMP JUMPDEST PUSH1 0x40 MLOAD DUP1 SWAP2 SUB SWAP1 LOG1 POP POP PUSH2 0x13B JUMP JUMPDEST PUSH0 PUSH0 PUSH1 0x40 DUP4 DUP6 SUB SLT ISZERO PUSH2 0x105 JUMPI PUSH0 PUSH0 REVERT JUMPDEST POP POP DUP1 MLOAD PUSH1 0x20 SWAP1 SWAP2 ADD MLOAD SWAP1 SWAP3 SWAP1 SWAP2 POP JUMP JUMPDEST DUP1 DUP3 ADD DUP1 DUP3 GT ISZERO PUSH2 0x135 JUMPI PUSH4 0x4E487B71 PUSH1 0xE0 SHL PUSH0 MSTORE PUSH1 0x11 PUSH1 0x4 MSTORE PUSH1 0x24 PUSH0 REVERT JUMPDEST SWAP3 SWAP2 POP POP JUMP JUMPDEST PUSH2 0xE0A DUP1 PUSH2 0x148 PUSH0 CODECOPY PUSH0 RETURN INVALID PUSH1 0x80 PUSH1 0x40 MSTORE PUSH1 0x4 CALLDATASIZE LT PUSH2 0xA5 JUMPI PUSH0 CALLDATALOAD PUSH1 0xE0 SHR DUP1 PUSH4 0x7CF2ED22 GT PUSH2 0x62 JUMPI DUP1 PUSH4 0x7CF2ED22 EQ PUSH2 0x199 JUMPI DUP1 PUSH4 0x8DA5CB5B EQ PUSH2 0x1AD JUMPI DUP1 PUSH4 0xB3F05B97 EQ PUSH2 0x1E4 JUMPI DUP1 PUSH4 0xB7E03264 EQ PUSH2 0x214 JUMPI DUP1 PUSH4 0xC24A0F8B EQ PUSH2 0x228 JUMPI DUP1 PUSH4 0xDB2E21BC EQ PUSH2 0x23D JUMPI PUSH0 PUSH0 REVERT JUMPDEST DUP1 PUSH4 0x14D2687C EQ PUSH2 0xA9 JUMPI DUP1 PUSH4 0x1998AEEF EQ PUSH2 0xD3 JUMPI DUP1 PUSH4 0x1CE2BCF5 EQ PUSH2 0xDD JUMPI DUP1 PUSH4 0x3260F218 EQ PUSH2 0xF1 JUMPI DUP1 PUSH4 0x4423C5F1 EQ PUSH2 0x138 JUMPI DUP1 PUSH4 0x56377D16 EQ PUSH2 0x176 JUMPI JUMPDEST PUSH0 PUSH0 REVERT JUMPDEST CALLVALUE DUP1 ISZERO PUSH2 0xB4 JUMPI PUSH0 PUSH0 REVERT JUMPDEST POP PUSH2 0xBD PUSH2 0x251 JUMP JUMPDEST PUSH1 0x40 MLOAD PUSH2 0xCA SWAP2 SWAP1 PUSH2 0xCAF JUMP JUMPDEST PUSH1 0x40 MLOAD DUP1 SWAP2 SUB SWAP1 RETURN JUMPDEST PUSH2 0xDB PUSH2 0x2C3 JUMP JUMPDEST STOP JUMPDEST CALLVALUE DUP1 ISZERO PUSH2 0xE8 JUMPI PUSH0 PUSH0 REVERT JUMPDEST POP PUSH2 0xDB PUSH2 0x4C2 JUMP JUMPDEST CALLVALUE DUP1 ISZERO PUSH2 0xFC JUMPI PUSH0 PUSH0 REVERT JUMPDEST POP PUSH2 0x123 PUSH2 0x10B CALLDATASIZE PUSH1 0x4 PUSH2 0xD06 JUMP JUMPDEST PUSH1 0x1 PUSH1 0x20 DUP2 SWAP1 MSTORE PUSH0 SWAP2 DUP3 MSTORE PUSH1 0x40 SWAP1 SWAP2 KECCAK256 DUP1 SLOAD SWAP2 ADD SLOAD DUP3 JUMP JUMPDEST PUSH1 0x40 DUP1 MLOAD SWAP3 DUP4 MSTORE PUSH1 0x20 DUP4 ADD SWAP2 SWAP1 SWAP2 MSTORE ADD PUSH2 0xCA JUMP JUMPDEST CALLVALUE DUP1 ISZERO PUSH2 0x143 JUMPI PUSH0 PUSH0 REVERT JUMPDEST POP PUSH2 0x157 PUSH2 0x152 CALLDATASIZE PUSH1 0x4 PUSH2 0xD33 JUMP JUMPDEST PUSH2 0x63C JUMP JUMPDEST PUSH1 0x40 DUP1 MLOAD PUSH1 0x1 PUSH1 0x1 PUSH1 0xA0 SHL SUB SWAP1 SWAP4 AND DUP4 MSTORE PUSH1 0x20 DUP4 ADD SWAP2 SWAP1 SWAP2 MSTORE ADD PUSH2 0xCA JUMP JUMPDEST CALLVALUE DUP1 ISZERO PUSH2 0x181 JUMPI PUSH0 PUSH0 REVERT JUMPDEST POP PUSH2 0x18B PUSH1 0x3 SLOAD DUP2 JUMP JUMPDEST PUSH1 0x40 MLOAD SWAP1 DUP2 MSTORE PUSH1 0x20 ADD PUSH2 0xCA JUMP JUMPDEST CALLVALUE DUP1 ISZERO PUSH2 0x1A4 JUMPI PUSH0 PUSH0 REVERT JUMPDEST POP PUSH2 0xDB PUSH2 0x671 JUMP JUMPDEST CALLVALUE DUP1 ISZERO PUSH2 0x1B8 JUMPI PUSH0 PUSH0 REVERT JUMPDEST POP PUSH1 0x4 SLOAD PUSH2 0x1CC SWAP1 PUSH1 0x1 PUSH1 0x1 PUSH1 0xA0 SHL SUB AND DUP2 JUMP JUMPDEST PUSH1 0x40 MLOAD PUSH1 0x1 PUSH1 0x1 PUSH1 0xA0 SHL SUB SWAP1 SWAP2 AND DUP2 MSTORE PUSH1 0x20 ADD PUSH2 0xCA JUMP JUMPDEST CALLVALUE DUP1 ISZERO PUSH2 0x1EF JUMPI PUSH0 PUSH0 REVERT JUMPDEST POP PUSH1 0x4 SLOAD PUSH2 0x204 SWAP1 PUSH1 0x1 PUSH1 0xA0 SHL SWAP1 DIV PUSH1 0xFF AND DUP2 JUMP JUMPDEST PUSH1 0x40 MLOAD SWAP1 ISZERO ISZERO DUP2 MSTORE PUSH1 0x20 ADD PUSH2 0xCA JUMP JUMPDEST CALLVALUE DUP1 ISZERO PUSH2 0x21F JUMPI PUSH0 PUSH0 REVERT JUMPDEST POP PUSH2 0x1CC PUSH2 0xA47 JUMP JUMPDEST CALLVALUE DUP1 ISZERO PUSH2 0x233 JUMPI PUSH0 PUSH0 REVERT JUMPDEST POP PUSH2 0x18B PUSH1 0x2 SLOAD DUP2 JUMP JUMPDEST CALLVALUE DUP1 ISZERO PUSH2 0x248 JUMPI PUSH0 PUSH0 REVERT JUMPDEST POP PUSH2 0xDB PUSH2 0xAC4 JUMP JUMPDEST PUSH1 0x60 PUSH0 DUP1 SLOAD DUP1 PUSH1 0x20 MUL PUSH1 0x20 ADD PUSH1 0x40 MLOAD SWAP1 DUP2 ADD PUSH1 0x40 MSTORE DUP1 SWAP3 SWAP2 SWAP1 DUP2 DUP2 MSTORE PUSH1 0x20 ADD PUSH0 SWAP1 JUMPDEST DUP3 DUP3 LT ISZERO PUSH2 0x2BA JUMPI PUSH0 DUP5 DUP2 MSTORE PUSH1 0x20 SWAP1 DUP2 SWAP1 KECCAK256 PUSH1 0x40 DUP1 MLOAD DUP1 DUP3 ADD SWAP1 SWAP2 MSTORE PUSH1 0x2 DUP6 MUL SWAP1 SWAP2 ADD DUP1 SLOAD PUSH1 0x1 PUSH1 0x1 PUSH1 0xA0 SHL SUB AND DUP3 MSTORE PUSH1 0x1 SWAP1 DUP2 ADD SLOAD DUP3 DUP5 ADD MSTORE SWAP1 DUP4 MSTORE SWAP1 SWAP3 ADD SWAP2 ADD PUSH2 0x273 JUMP JUMPDEST POP POP POP POP SWAP1 POP SWAP1 JUMP JUMPDEST PUSH1 0x2 SLOAD TIMESTAMP LT PUSH2 0x309 JUMPI PUSH1 0x40 MLOAD PUSH3 0x461BCD PUSH1 0xE5 SHL DUP2 MSTORE PUSH1 0x20 PUSH1 0x4 DUP3 ADD MSTORE PUSH1 0xD PUSH1 0x24 DUP3 ADD MSTORE PUSH13 0x105D58DD1A5BDB88195B991959 PUSH1 0x9A SHL PUSH1 0x44 DUP3 ADD MSTORE PUSH1 0x64 ADD JUMPDEST PUSH1 0x40 MLOAD DUP1 SWAP2 SUB SWAP1 REVERT JUMPDEST PUSH0 DUP1 SLOAD SWAP1 DUP2 ISZERO PUSH2 0x35C JUMPI PUSH1 0x64 PUSH0 PUSH2 0x321 PUSH1 0x1 DUP6 PUSH2 0xD5E JUMP JUMPDEST DUP2 SLOAD DUP2 LT PUSH2 0x331 JUMPI PUSH2 0x331 PUSH2 0xD77 JUMP JUMPDEST SWAP1 PUSH0 MSTORE PUSH1 0x20 PUSH0 KECCAK256 SWAP1 PUSH1 0x2 MUL ADD PUSH1 0x1 ADD SLOAD PUSH1 0x69 PUSH2 0x34D SWAP2 SWAP1 PUSH2 0xD8B JUMP JUMPDEST PUSH2 0x357 SWAP2 SWAP1 PUSH2 0xDA2 JUMP JUMPDEST PUSH2 0x360 JUMP JUMPDEST PUSH1 0x3 SLOAD JUMPDEST SWAP1 POP DUP1 CALLVALUE LT ISZERO PUSH2 0x3A0 JUMPI PUSH1 0x40 MLOAD PUSH3 0x461BCD PUSH1 0xE5 SHL DUP2 MSTORE PUSH1 0x20 PUSH1 0x4 DUP3 ADD MSTORE PUSH1 0xB PUSH1 0x24 DUP3 ADD MSTORE PUSH11 0x42696420746F6F206C6F77 PUSH1 0xA8 SHL PUSH1 0x44 DUP3 ADD MSTORE PUSH1 0x64 ADD PUSH2 0x300 JUMP JUMPDEST CALLER PUSH0 SWAP1 DUP2 MSTORE PUSH1 0x1 PUSH1 0x20 DUP2 SWAP1 MSTORE PUSH1 0x40 DUP3 KECCAK256 CALLVALUE DUP1 DUP3 SSTORE SWAP2 ADD DUP1 SLOAD SWAP2 SWAP3 SWAP1 SWAP2 PUSH2 0x3C7 SWAP1 DUP5 SWAP1 PUSH2 0xDC1 JUMP JUMPDEST SWAP1 SWAP2 SSTORE POP POP PUSH1 0x40 DUP1 MLOAD DUP1 DUP3 ADD SWAP1 SWAP2 MSTORE CALLER DUP2 MSTORE CALLVALUE PUSH1 0x20 DUP3 ADD SWAP1 DUP2 MSTORE PUSH0 DUP1 SLOAD PUSH1 0x1 DUP2 ADD DUP3 SSTORE SWAP1 DUP1 MSTORE SWAP2 MLOAD PUSH32 0x290DECD9548B62A8D60345A988386FC84BA6BC95484008F6362F93160EF3E563 PUSH1 0x2 SWAP1 SWAP4 MUL SWAP3 DUP4 ADD DUP1 SLOAD PUSH1 0x1 PUSH1 0x1 PUSH1 0xA0 SHL SUB NOT AND PUSH1 0x1 PUSH1 0x1 PUSH1 0xA0 SHL SUB SWAP1 SWAP3 AND SWAP2 SWAP1 SWAP2 OR SWAP1 SSTORE MLOAD PUSH32 0x290DECD9548B62A8D60345A988386FC84BA6BC95484008F6362F93160EF3E564 SWAP1 SWAP2 ADD SSTORE PUSH2 0x467 TIMESTAMP PUSH2 0x258 PUSH2 0xDC1 JUMP JUMPDEST PUSH1 0x2 SLOAD GT PUSH2 0x488 JUMPI PUSH2 0x258 PUSH1 0x2 PUSH0 DUP3 DUP3 SLOAD PUSH2 0x482 SWAP2 SWAP1 PUSH2 0xDC1 JUMP JUMPDEST SWAP1 SWAP2 SSTORE POP POP JUMPDEST PUSH1 0x40 MLOAD CALLVALUE DUP2 MSTORE CALLER SWAP1 PUSH32 0xDD0B6C6A77960E2066C96171B4D7AC9E8B4C184011F38544AFA36A5BB63EC59F SWAP1 PUSH1 0x20 ADD JUMPDEST PUSH1 0x40 MLOAD DUP1 SWAP2 SUB SWAP1 LOG2 POP POP JUMP JUMPDEST PUSH1 0x2 SLOAD TIMESTAMP LT PUSH2 0x503 JUMPI PUSH1 0x40 MLOAD PUSH3 0x461BCD PUSH1 0xE5 SHL DUP2 MSTORE PUSH1 0x20 PUSH1 0x4 DUP3 ADD MSTORE PUSH1 0xD PUSH1 0x24 DUP3 ADD MSTORE PUSH13 0x105D58DD1A5BDB88195B991959 PUSH1 0x9A SHL PUSH1 0x44 DUP3 ADD MSTORE PUSH1 0x64 ADD PUSH2 0x300 JUMP JUMPDEST CALLER PUSH0 SWAP1 DUP2 MSTORE PUSH1 0x1 PUSH1 0x20 DUP2 SWAP1 MSTORE PUSH1 0x40 DUP3 KECCAK256 DUP1 SLOAD SWAP2 ADD SLOAD PUSH2 0x522 SWAP2 SWAP1 PUSH2 0xD5E JUMP JUMPDEST SWAP1 POP PUSH0 DUP2 GT PUSH2 0x56B JUMPI PUSH1 0x40 MLOAD PUSH3 0x461BCD PUSH1 0xE5 SHL DUP2 MSTORE PUSH1 0x20 PUSH1 0x4 DUP3 ADD MSTORE PUSH1 0x15 PUSH1 0x24 DUP3 ADD MSTORE PUSH21 0x4E6F2065786365737320746F207769746864726177 PUSH1 0x58 SHL PUSH1 0x44 DUP3 ADD MSTORE PUSH1 0x64 ADD PUSH2 0x300 JUMP JUMPDEST CALLER PUSH0 DUP2 DUP2 MSTORE PUSH1 0x1 PUSH1 0x20 DUP2 SWAP1 MSTORE PUSH1 0x40 DUP1 DUP4 KECCAK256 DUP1 SLOAD SWAP3 ADD SWAP2 SWAP1 SWAP2 SSTORE MLOAD SWAP1 SWAP2 SWAP1 DUP4 SWAP1 DUP4 DUP2 DUP2 DUP2 DUP6 DUP8 GAS CALL SWAP3 POP POP POP RETURNDATASIZE DUP1 PUSH0 DUP2 EQ PUSH2 0x5C0 JUMPI PUSH1 0x40 MLOAD SWAP2 POP PUSH1 0x1F NOT PUSH1 0x3F RETURNDATASIZE ADD AND DUP3 ADD PUSH1 0x40 MSTORE RETURNDATASIZE DUP3 MSTORE RETURNDATASIZE PUSH0 PUSH1 0x20 DUP5 ADD RETURNDATACOPY PUSH2 0x5C5 JUMP JUMPDEST PUSH1 0x60 SWAP2 POP JUMPDEST POP POP SWAP1 POP DUP1 PUSH2 0x60A JUMPI PUSH1 0x40 MLOAD PUSH3 0x461BCD PUSH1 0xE5 SHL DUP2 MSTORE PUSH1 0x20 PUSH1 0x4 DUP3 ADD MSTORE PUSH1 0x11 PUSH1 0x24 DUP3 ADD MSTORE PUSH17 0x15DA5D1A191C985DD85B0819985A5B1959 PUSH1 0x7A SHL PUSH1 0x44 DUP3 ADD MSTORE PUSH1 0x64 ADD PUSH2 0x300 JUMP JUMPDEST PUSH1 0x40 MLOAD DUP3 DUP2 MSTORE CALLER SWAP1 PUSH32 0x884EDAD9CE6FA2440D8A54CC123490EB96D2768479D49FF9C7366125A9424364 SWAP1 PUSH1 0x20 ADD PUSH2 0x4B6 JUMP JUMPDEST PUSH0 DUP2 DUP2 SLOAD DUP2 LT PUSH2 0x64A JUMPI PUSH0 DUP1 REVERT JUMPDEST PUSH0 SWAP2 DUP3 MSTORE PUSH1 0x20 SWAP1 SWAP2 KECCAK256 PUSH1 0x2 SWAP1 SWAP2 MUL ADD DUP1 SLOAD PUSH1 0x1 SWAP1 SWAP2 ADD SLOAD PUSH1 0x1 PUSH1 0x1 PUSH1 0xA0 SHL SUB SWAP1 SWAP2 AND SWAP2 POP DUP3 JUMP JUMPDEST PUSH1 0x2 SLOAD TIMESTAMP LT ISZERO PUSH2 0x6B9 JUMPI PUSH1 0x40 MLOAD PUSH3 0x461BCD PUSH1 0xE5 SHL DUP2 MSTORE PUSH1 0x20 PUSH1 0x4 DUP3 ADD MSTORE PUSH1 0x13 PUSH1 0x24 DUP3 ADD MSTORE PUSH19 0x41756374696F6E20696E2070726F6772657373 PUSH1 0x68 SHL PUSH1 0x44 DUP3 ADD MSTORE PUSH1 0x64 ADD PUSH2 0x300 JUMP JUMPDEST PUSH1 0x4 SLOAD PUSH1 0x1 PUSH1 0x1 PUSH1 0xA0 SHL SUB AND CALLER EQ PUSH2 0x704 JUMPI PUSH1 0x40 MLOAD PUSH3 0x461BCD PUSH1 0xE5 SHL DUP2 MSTORE PUSH1 0x20 PUSH1 0x4 DUP3 ADD MSTORE PUSH1 0xE PUSH1 0x24 DUP3 ADD MSTORE PUSH14 0x139BDD08185D5D1A1BDC9A5E9959 PUSH1 0x92 SHL PUSH1 0x44 DUP3 ADD MSTORE PUSH1 0x64 ADD PUSH2 0x300 JUMP JUMPDEST PUSH1 0x4 SLOAD PUSH1 0x1 PUSH1 0xA0 SHL SWAP1 DIV PUSH1 0xFF AND ISZERO PUSH2 0x752 JUMPI PUSH1 0x40 MLOAD PUSH3 0x461BCD PUSH1 0xE5 SHL DUP2 MSTORE PUSH1 0x20 PUSH1 0x4 DUP3 ADD MSTORE PUSH1 0x11 PUSH1 0x24 DUP3 ADD MSTORE PUSH17 0x105B1C9958591E48199A5B985B1A5E9959 PUSH1 0x7A SHL PUSH1 0x44 DUP3 ADD MSTORE PUSH1 0x64 ADD PUSH2 0x300 JUMP JUMPDEST PUSH0 DUP1 SLOAD DUP2 SWAP1 PUSH2 0x763 SWAP1 PUSH1 0x1 SWAP1 PUSH2 0xD5E JUMP JUMPDEST DUP2 SLOAD DUP2 LT PUSH2 0x773 JUMPI PUSH2 0x773 PUSH2 0xD77 JUMP JUMPDEST PUSH0 SWAP2 DUP3 MSTORE PUSH1 0x20 DUP3 KECCAK256 PUSH1 0x2 SWAP1 SWAP2 MUL ADD SLOAD PUSH1 0x1 PUSH1 0x1 PUSH1 0xA0 SHL SUB AND SWAP2 POP DUP1 JUMPDEST PUSH0 SLOAD DUP2 LT ISZERO PUSH2 0x904 JUMPI PUSH0 PUSH0 DUP3 DUP2 SLOAD DUP2 LT PUSH2 0x7AB JUMPI PUSH2 0x7AB PUSH2 0xD77 JUMP JUMPDEST PUSH0 SWAP2 DUP3 MSTORE PUSH1 0x20 SWAP1 SWAP2 KECCAK256 PUSH1 0x2 SWAP1 SWAP2 MUL ADD SLOAD PUSH1 0x1 PUSH1 0x1 PUSH1 0xA0 SHL SUB SWAP1 DUP2 AND SWAP2 POP DUP5 AND DUP2 SUB PUSH2 0x7D6 JUMPI POP PUSH2 0x8FC JUMP JUMPDEST PUSH1 0x1 PUSH1 0x1 PUSH1 0xA0 SHL SUB DUP2 AND PUSH0 SWAP1 DUP2 MSTORE PUSH1 0x1 PUSH1 0x20 DUP2 SWAP1 MSTORE PUSH1 0x40 DUP3 KECCAK256 ADD SLOAD SWAP1 PUSH1 0x64 PUSH2 0x7FF DUP4 PUSH1 0x62 PUSH2 0xD8B JUMP JUMPDEST PUSH2 0x809 SWAP2 SWAP1 PUSH2 0xDA2 JUMP JUMPDEST SWAP1 POP DUP1 ISZERO PUSH2 0x8F8 JUMPI PUSH1 0x1 PUSH1 0x1 PUSH1 0xA0 SHL SUB DUP4 AND PUSH0 DUP2 DUP2 MSTORE PUSH1 0x1 PUSH1 0x20 DUP2 SWAP1 MSTORE PUSH1 0x40 DUP1 DUP4 KECCAK256 SWAP1 SWAP2 ADD DUP3 SWAP1 SSTORE MLOAD SWAP1 SWAP2 SWAP1 DUP4 SWAP1 DUP4 DUP2 DUP2 DUP2 DUP6 DUP8 GAS CALL SWAP3 POP POP POP RETURNDATASIZE DUP1 PUSH0 DUP2 EQ PUSH2 0x86D JUMPI PUSH1 0x40 MLOAD SWAP2 POP PUSH1 0x1F NOT PUSH1 0x3F RETURNDATASIZE ADD AND DUP3 ADD PUSH1 0x40 MSTORE RETURNDATASIZE DUP3 MSTORE RETURNDATASIZE PUSH0 PUSH1 0x20 DUP5 ADD RETURNDATACOPY PUSH2 0x872 JUMP JUMPDEST PUSH1 0x60 SWAP2 POP JUMPDEST POP POP SWAP1 POP DUP1 PUSH2 0x8B3 JUMPI PUSH1 0x40 MLOAD PUSH3 0x461BCD PUSH1 0xE5 SHL DUP2 MSTORE PUSH1 0x20 PUSH1 0x4 DUP3 ADD MSTORE PUSH1 0xD PUSH1 0x24 DUP3 ADD MSTORE PUSH13 0x1499599D5B990819985A5B1959 PUSH1 0x9A SHL PUSH1 0x44 DUP3 ADD MSTORE PUSH1 0x64 ADD PUSH2 0x300 JUMP JUMPDEST DUP4 PUSH1 0x1 PUSH1 0x1 PUSH1 0xA0 SHL SUB AND PUSH32 0x884EDAD9CE6FA2440D8A54CC123490EB96D2768479D49FF9C7366125A9424364 DUP4 PUSH1 0x40 MLOAD PUSH2 0x8EE SWAP2 DUP2 MSTORE PUSH1 0x20 ADD SWAP1 JUMP JUMPDEST PUSH1 0x40 MLOAD DUP1 SWAP2 SUB SWAP1 LOG2 POP JUMPDEST POP POP POP JUMPDEST PUSH1 0x1 ADD PUSH2 0x78F JUMP JUMPDEST POP PUSH1 0x64 PUSH2 0x912 SELFBALANCE PUSH1 0x2 PUSH2 0xD8B JUMP JUMPDEST PUSH2 0x91C SWAP2 SWAP1 PUSH2 0xDA2 JUMP JUMPDEST SWAP1 POP DUP1 ISZERO PUSH2 0x9BA JUMPI PUSH1 0x4 SLOAD PUSH1 0x40 MLOAD PUSH0 SWAP2 PUSH1 0x1 PUSH1 0x1 PUSH1 0xA0 SHL SUB AND SWAP1 DUP4 SWAP1 DUP4 DUP2 DUP2 DUP2 DUP6 DUP8 GAS CALL SWAP3 POP POP POP RETURNDATASIZE DUP1 PUSH0 DUP2 EQ PUSH2 0x96E JUMPI PUSH1 0x40 MLOAD SWAP2 POP PUSH1 0x1F NOT PUSH1 0x3F RETURNDATASIZE ADD AND DUP3 ADD PUSH1 0x40 MSTORE RETURNDATASIZE DUP3 MSTORE RETURNDATASIZE PUSH0 PUSH1 0x20 DUP5 ADD RETURNDATACOPY PUSH2 0x973 JUMP JUMPDEST PUSH1 0x60 SWAP2 POP JUMPDEST POP POP SWAP1 POP DUP1 PUSH2 0x9B8 JUMPI PUSH1 0x40 MLOAD PUSH3 0x461BCD PUSH1 0xE5 SHL DUP2 MSTORE PUSH1 0x20 PUSH1 0x4 DUP3 ADD MSTORE PUSH1 0x11 PUSH1 0x24 DUP3 ADD MSTORE PUSH17 0x10DBDB5B5A5CDCDA5BDB8819985A5B1959 PUSH1 0x7A SHL PUSH1 0x44 DUP3 ADD MSTORE PUSH1 0x64 ADD PUSH2 0x300 JUMP JUMPDEST POP JUMPDEST PUSH1 0x4 DUP1 SLOAD PUSH1 0xFF PUSH1 0xA0 SHL NOT AND PUSH1 0x1 PUSH1 0xA0 SHL OR SWAP1 SSTORE PUSH0 DUP1 SLOAD PUSH32 0xDAEC4582D5D9595688C8C98545FDD1C696D41C6AEAEB636737E84ED2F5C00EDA SWAP2 DUP5 SWAP2 PUSH2 0xA00 SWAP1 PUSH1 0x1 SWAP1 PUSH2 0xD5E JUMP JUMPDEST DUP2 SLOAD DUP2 LT PUSH2 0xA10 JUMPI PUSH2 0xA10 PUSH2 0xD77 JUMP JUMPDEST PUSH0 SWAP2 DUP3 MSTORE PUSH1 0x20 SWAP2 DUP3 SWAP1 KECCAK256 PUSH1 0x1 PUSH1 0x2 SWAP1 SWAP3 MUL ADD ADD SLOAD PUSH1 0x40 DUP1 MLOAD PUSH1 0x1 PUSH1 0x1 PUSH1 0xA0 SHL SUB SWAP1 SWAP5 AND DUP5 MSTORE SWAP2 DUP4 ADD MSTORE ADD JUMPDEST PUSH1 0x40 MLOAD DUP1 SWAP2 SUB SWAP1 LOG1 POP POP JUMP JUMPDEST PUSH0 DUP1 SLOAD PUSH2 0xA87 JUMPI PUSH1 0x40 MLOAD PUSH3 0x461BCD PUSH1 0xE5 SHL DUP2 MSTORE PUSH1 0x20 PUSH1 0x4 DUP3 ADD MSTORE PUSH1 0xE PUSH1 0x24 DUP3 ADD MSTORE PUSH14 0x139BC8189A591CC81C1B1858D959 PUSH1 0x92 SHL PUSH1 0x44 DUP3 ADD MSTORE PUSH1 0x64 ADD PUSH2 0x300 JUMP JUMPDEST PUSH0 DUP1 SLOAD PUSH2 0xA96 SWAP1 PUSH1 0x1 SWAP1 PUSH2 0xD5E JUMP JUMPDEST DUP2 SLOAD DUP2 LT PUSH2 0xAA6 JUMPI PUSH2 0xAA6 PUSH2 0xD77 JUMP JUMPDEST PUSH0 SWAP2 DUP3 MSTORE PUSH1 0x20 SWAP1 SWAP2 KECCAK256 PUSH1 0x2 SWAP1 SWAP2 MUL ADD SLOAD PUSH1 0x1 PUSH1 0x1 PUSH1 0xA0 SHL SUB AND SWAP2 SWAP1 POP JUMP JUMPDEST PUSH1 0x4 SLOAD PUSH1 0x1 PUSH1 0x1 PUSH1 0xA0 SHL SUB AND CALLER EQ PUSH2 0xB0F JUMPI PUSH1 0x40 MLOAD PUSH3 0x461BCD PUSH1 0xE5 SHL DUP2 MSTORE PUSH1 0x20 PUSH1 0x4 DUP3 ADD MSTORE PUSH1 0xE PUSH1 0x24 DUP3 ADD MSTORE PUSH14 0x139BDD08185D5D1A1BDC9A5E9959 PUSH1 0x92 SHL PUSH1 0x44 DUP3 ADD MSTORE PUSH1 0x64 ADD PUSH2 0x300 JUMP JUMPDEST PUSH1 0x2 SLOAD TIMESTAMP LT ISZERO PUSH2 0xB57 JUMPI PUSH1 0x40 MLOAD PUSH3 0x461BCD PUSH1 0xE5 SHL DUP2 MSTORE PUSH1 0x20 PUSH1 0x4 DUP3 ADD MSTORE PUSH1 0x13 PUSH1 0x24 DUP3 ADD MSTORE PUSH19 0x41756374696F6E20696E2070726F6772657373 PUSH1 0x68 SHL PUSH1 0x44 DUP3 ADD MSTORE PUSH1 0x64 ADD PUSH2 0x300 JUMP JUMPDEST PUSH1 0x4 SLOAD PUSH1 0x1 PUSH1 0xA0 SHL SWAP1 DIV PUSH1 0xFF AND PUSH2 0xBA6 JUMPI PUSH1 0x40 MLOAD PUSH3 0x461BCD PUSH1 0xE5 SHL DUP2 MSTORE PUSH1 0x20 PUSH1 0x4 DUP3 ADD MSTORE PUSH1 0x13 PUSH1 0x24 DUP3 ADD MSTORE PUSH19 0x135D5CDD08199A5B985B1A5E9948199A5C9CDD PUSH1 0x6A SHL PUSH1 0x44 DUP3 ADD MSTORE PUSH1 0x64 ADD PUSH2 0x300 JUMP JUMPDEST SELFBALANCE DUP1 PUSH2 0xBDF JUMPI PUSH1 0x40 MLOAD PUSH3 0x461BCD PUSH1 0xE5 SHL DUP2 MSTORE PUSH1 0x20 PUSH1 0x4 DUP3 ADD MSTORE PUSH1 0x8 PUSH1 0x24 DUP3 ADD MSTORE PUSH8 0x4E6F2066756E6473 PUSH1 0xC0 SHL PUSH1 0x44 DUP3 ADD MSTORE PUSH1 0x64 ADD PUSH2 0x300 JUMP JUMPDEST PUSH1 0x4 SLOAD PUSH1 0x40 MLOAD PUSH0 SWAP2 PUSH1 0x1 PUSH1 0x1 PUSH1 0xA0 SHL SUB AND SWAP1 DUP4 SWAP1 DUP4 DUP2 DUP2 DUP2 DUP6 DUP8 GAS CALL SWAP3 POP POP POP RETURNDATASIZE DUP1 PUSH0 DUP2 EQ PUSH2 0xC29 JUMPI PUSH1 0x40 MLOAD SWAP2 POP PUSH1 0x1F NOT PUSH1 0x3F RETURNDATASIZE ADD AND DUP3 ADD PUSH1 0x40 MSTORE RETURNDATASIZE DUP3 MSTORE RETURNDATASIZE PUSH0 PUSH1 0x20 DUP5 ADD RETURNDATACOPY PUSH2 0xC2E JUMP JUMPDEST PUSH1 0x60 SWAP2 POP JUMPDEST POP POP SWAP1 POP DUP1 PUSH2 0xC7F JUMPI PUSH1 0x40 MLOAD PUSH3 0x461BCD PUSH1 0xE5 SHL DUP2 MSTORE PUSH1 0x20 PUSH1 0x4 DUP3 ADD MSTORE PUSH1 0x1B PUSH1 0x24 DUP3 ADD MSTORE PUSH32 0x456D657267656E6379207769746864726177616C206661696C65640000000000 PUSH1 0x44 DUP3 ADD MSTORE PUSH1 0x64 ADD PUSH2 0x300 JUMP JUMPDEST PUSH1 0x40 MLOAD DUP3 DUP2 MSTORE PUSH32 0x99D7F8B71CFB9126984F7A5EED3A40E64A8959E9B0E442221546FB04EC6A489C SWAP1 PUSH1 0x20 ADD PUSH2 0xA3B JUMP JUMPDEST PUSH1 0x20 DUP1 DUP3 MSTORE DUP3 MLOAD DUP3 DUP3 ADD DUP2 SWAP1 MSTORE PUSH0 SWAP2 DUP5 ADD SWAP1 PUSH1 0x40 DUP5 ADD SWAP1 DUP4 JUMPDEST DUP2 DUP2 LT ISZERO PUSH2 0xCFB JUMPI DUP4 MLOAD DUP1 MLOAD PUSH1 0x1 PUSH1 0x1 PUSH1 0xA0 SHL SUB AND DUP5 MSTORE PUSH1 0x20 SWAP1 DUP2 ADD MLOAD DUP2 DUP6 ADD MSTORE SWAP1 SWAP4 ADD SWAP3 PUSH1 0x40 SWAP1 SWAP3 ADD SWAP2 PUSH1 0x1 ADD PUSH2 0xCC8 JUMP JUMPDEST POP SWAP1 SWAP6 SWAP5 POP POP POP POP POP JUMP JUMPDEST PUSH0 PUSH1 0x20 DUP3 DUP5 SUB SLT ISZERO PUSH2 0xD16 JUMPI PUSH0 PUSH0 REVERT JUMPDEST DUP2 CALLDATALOAD PUSH1 0x1 PUSH1 0x1 PUSH1 0xA0 SHL SUB DUP2 AND DUP2 EQ PUSH2 0xD2C JUMPI PUSH0 PUSH0 REVERT JUMPDEST SWAP4 SWAP3 POP POP POP JUMP JUMPDEST PUSH0 PUSH1 0x20 DUP3 DUP5 SUB SLT ISZERO PUSH2 0xD43 JUMPI PUSH0 PUSH0 REVERT JUMPDEST POP CALLDATALOAD SWAP2 SWAP1 POP JUMP JUMPDEST PUSH4 0x4E487B71 PUSH1 0xE0 SHL PUSH0 MSTORE PUSH1 0x11 PUSH1 0x4 MSTORE PUSH1 0x24 PUSH0 REVERT JUMPDEST DUP2 DUP2 SUB DUP2 DUP2 GT ISZERO PUSH2 0xD71 JUMPI PUSH2 0xD71 PUSH2 0xD4A JUMP JUMPDEST SWAP3 SWAP2 POP POP JUMP JUMPDEST PUSH4 0x4E487B71 PUSH1 0xE0 SHL PUSH0 MSTORE PUSH1 0x32 PUSH1 0x4 MSTORE PUSH1 0x24 PUSH0 REVERT JUMPDEST DUP1 DUP3 MUL DUP2 ISZERO DUP3 DUP3 DIV DUP5 EQ OR PUSH2 0xD71 JUMPI PUSH2 0xD71 PUSH2 0xD4A JUMP JUMPDEST PUSH0 DUP3 PUSH2 0xDBC JUMPI PUSH4 0x4E487B71 PUSH1 0xE0 SHL PUSH0 MSTORE PUSH1 0x12 PUSH1 0x4 MSTORE PUSH1 0x24 PUSH0 REVERT JUMPDEST POP DIV SWAP1 JUMP JUMPDEST DUP1 DUP3 ADD DUP1 DUP3 GT ISZERO PUSH2 0xD71 JUMPI PUSH2 0xD71 PUSH2 0xD4A JUMP INVALID LOG2 PUSH5 0x6970667358 0x22 SLT KECCAK256 DUP3 LOG3 0xFC PUSH24 0x4DE36473EE86222E0E39CC9D61FF083EF55C670DB3DC39F5 CALL PUSH23 0xCC0564736F6C634300081E003300000000000000000000 "
				},
				"gasEstimates": {
					"creation": {
						"codeDepositCost": "718800",
						"executionCost": "infinite",
						"totalCost": "infinite"
					},
					"external": {
						"bid()": "infinite",
						"bids(uint256)": "6858",
						"emergencyWithdraw()": "infinite",
						"endDate()": "2382",
						"finalized()": "2370",
						"initialValue()": "2405",
						"myBids(address)": "4690",
						"owner()": "2358",
						"partialRefund()": "infinite",
						"showBids()": "infinite",
						"showWinner()": "8911",
						"withdrawDeposits()": "infinite"
					}
				},
				"methodIdentifiers": {
					"bid()": "1998aeef",
					"bids(uint256)": "4423c5f1",
					"emergencyWithdraw()": "db2e21bc",
					"endDate()": "c24a0f8b",
					"finalized()": "b3f05b97",
					"initialValue()": "56377d16",
					"myBids(address)": "3260f218",
					"owner()": "8da5cb5b",
					"partialRefund()": "1ce2bcf5",
					"showBids()": "14d2687c",
					"showWinner()": "b7e03264",
					"withdrawDeposits()": "7cf2ed22"
				}
			},
			"storageLayout": {
				"storage": [
					{
						"astId": 16,
						"contract": "SingAuction.sol:Auction",
						"label": "bids",
						"offset": 0,
						"slot": "0",
						"type": "t_array(t_struct(Bid)7_storage)dyn_storage"
					},
					{
						"astId": 21,
						"contract": "SingAuction.sol:Auction",
						"label": "myBids",
						"offset": 0,
						"slot": "1",
						"type": "t_mapping(t_address,t_struct(MyBids)12_storage)"
					},
					{
						"astId": 23,
						"contract": "SingAuction.sol:Auction",
						"label": "endDate",
						"offset": 0,
						"slot": "2",
						"type": "t_uint256"
					},
					{
						"astId": 25,
						"contract": "SingAuction.sol:Auction",
						"label": "initialValue",
						"offset": 0,
						"slot": "3",
						"type": "t_uint256"
					},
					{
						"astId": 27,
						"contract": "SingAuction.sol:Auction",
						"label": "owner",
						"offset": 0,
						"slot": "4",
						"type": "t_address"
					},
					{
						"astId": 29,
						"contract": "SingAuction.sol:Auction",
						"label": "finalized",
						"offset": 20,
						"slot": "4",
						"type": "t_bool"
					}
				],
				"types": {
					"t_address": {
						"encoding": "inplace",
						"label": "address",
						"numberOfBytes": "20"
					},
					"t_array(t_struct(Bid)7_storage)dyn_storage": {
						"base": "t_struct(Bid)7_storage",
						"encoding": "dynamic_array",
						"label": "struct Auction.Bid[]",
						"numberOfBytes": "32"
					},
					"t_bool": {
						"encoding": "inplace",
						"label": "bool",
						"numberOfBytes": "1"
					},
					"t_mapping(t_address,t_struct(MyBids)12_storage)": {
						"encoding": "mapping",
						"key": "t_address",
						"label": "mapping(address => struct Auction.MyBids)",
						"numberOfBytes": "32",
						"value": "t_struct(MyBids)12_storage"
					},
					"t_struct(Bid)7_storage": {
						"encoding": "inplace",
						"label": "struct Auction.Bid",
						"members": [
							{
								"astId": 4,
								"contract": "SingAuction.sol:Auction",
								"label": "bidder",
								"offset": 0,
								"slot": "0",
								"type": "t_address"
							},
							{
								"astId": 6,
								"contract": "SingAuction.sol:Auction",
								"label": "amount",
								"offset": 0,
								"slot": "1",
								"type": "t_uint256"
							}
						],
						"numberOfBytes": "64"
					},
					"t_struct(MyBids)12_storage": {
						"encoding": "inplace",
						"label": "struct Auction.MyBids",
						"members": [
							{
								"astId": 9,
								"contract": "SingAuction.sol:Auction",
								"label": "last",
								"offset": 0,
								"slot": "0",
								"type": "t_uint256"
							},
							{
								"astId": 11,
								"contract": "SingAuction.sol:Auction",
								"label": "accumulated",
								"offset": 0,
								"slot": "1",
								"type": "t_uint256"
							}
						],
						"numberOfBytes": "64"
					},
					"t_uint256": {
						"encoding": "inplace",
						"label": "uint256",
						"numberOfBytes": "32"
					}
				}
			},
			"userdoc": {
				"events": {
					"AuctionEnded(address,uint256)": {
						"notice": "Event emitted when auction ends"
					},
					"AuctionStarted(uint256)": {
						"notice": "Event emitted when auction starts"
					},
					"EmergencyWithdraw(uint256)": {
						"notice": "Event emitted if emergency withdrawal is executed"
					},
					"NewBid(address,uint256)": {
						"notice": "Event emitted when a new valid bid is placed"
					},
					"Withdraw(address,uint256)": {
						"notice": "Event emitted when funds are withdrawn"
					}
				},
				"kind": "user",
				"methods": {
					"bid()": {
						"notice": "Places a bid; must be 5% higher than the last one."
					},
					"emergencyWithdraw()": {
						"notice": "Emergency withdrawal of remaining funds (only after ending)"
					},
					"partialRefund()": {
						"notice": "Withdraws excess above last bid (while auction is active)"
					},
					"showBids()": {
						"notice": "Complete list of bids"
					},
					"showWinner()": {
						"notice": "Shows current winner"
					},
					"withdrawDeposits()": {
						"notice": "Ends the auction and handles refunds and commission"
					}
				},
				"version": 1
			}
		}
	}
}